:1000000000000420DD0100000902000009020000D8
:1000100009020000090200000902000009020000B4
:1000200009020000090200000902000009020000A4
:100030000902000009020000090200000902000094
:100040000902000009020000090200000902000084
:100050000902000009020000090200000902000074
:100060000902000009020000090200000902000064
:1000700095190000090200006D1B00000902000034
:100080000902000009020000090200000902000044
:100090000902000009020000090200000902000034
:1000A0000902000009020000090200000902000024
:1000B0000902000009020000090200000902000014
:1000C0000902000009020000090200000902000004
:1000D00009020000090200000902000009020000F4
:1000E00009020000090200000902000009020000E4
:1000F000090200000902000009020000591B00006B
:1001000009020000090200000902000010B5054CB8
:10011000237833B9044B13B10448AFF300800123B3
:10012000237010BDA000002000000000141D00007E
:10013000084B10B51BB108480849AFF300800848C8
:10014000036803B910BD074B002BFBD0BDE810407E
:10015000184700BF00000000141D0000A40000208C
:100160009C00002000000000154B002B08BF134B23
:100170009D46A3F5803A00218B460F461348144A4A
:10018000121A01F081FD0F4B002B00D098470E4B47
:10019000002B00D098470020002104000D000D48DE
:1001A000002802D00C48AFF3008001F047FD20008A
:1001B000290001F0B5FA01F02DFD00BF0000080094
:1001C000000004200000000000000000A00000204B
:1001D000D802002000000000000000000648804710
:1001E0000649074A074B9A42BEBF51F8040B42F832
:1001F000040BF8E7FFF7B8FFD9020000201D00004C
:1002000000000020A0000020FEE700BF80B582B003
:1002100000AF00F01DF878600A4BD3F808210A4BB4
:1002200013401B0A3B603B6801337A68B2FBF3F36F
:100230007B60064A7B6813607B6818460837BD46BA
:1002400080BD00BF00400E4000FF010008000020FC
:1002500080B483B000AF164BD3F8943003F007039B
:10026000032B08D0042B02D0022B08D00BE0114B3B
:100270001B687B600BE04FF400437B6007E00E4B94
:100280001B687B6003E00D4B1B687B6000BF084B65
:10029000D3F8003103F4F8531B0A01337A68B2FB38
:1002A000F3F318460C37BD465DF8047B704700BF7A
:1002B00000400E4004000020000000200C00002040
:1002C00080B400AF034B1B681846BD465DF8047B45
:1002D000704700BF0000002080B400AF054A054B06
:1002E000D3F8883043F47003C2F88830BD465DF817
:1002F000047B704700ED00E080B400AF4FF4004392
:100300001846BD465DF8047B704700BF80B400AF5F
:100310004FF47A731846BD465DF8047B704700BF02
:1003200080B400AF034B1B681846BD465DF8047BE4
:10033000704700BF0400002080B487B000AFF860B1
:10034000B9607A60FB6803F10473DA00BB68134498
:100350009B007B617B697A681A601C37BD465DF83B
:10036000047B704780B485B000AF786039607B68EB
:1003700003F1C063FB60FB683A681A601437BD463E
:100380005DF8047B704700BF80B485B000AF786033
:1003900039607B6803F18063FB60FB683A681A6030
:1003A0001437BD465DF8047B704700BF80B584B04C
:1003B00000AFF860B9607A60F868B968FFF7E4FFE9
:1003C000F8687968FFF7CEFF1037BD4680BD00BFE3
:1003D00080B483B000AF78607B68B3F1804F03D006
:1003E0007B68074A934200D100BF7B681B6843F0DB
:1003F00001027B681A600C37BD465DF8047B7047CC
:100400000004004080B584B000AFF860B9601146C8
:100410001A460B46FB711346BB71FB68B3F1804F64
:1004200003D0FB680C4A934200D100BFFA68BB7945
:10043000DB00104608211A46FFF7B8FFFB68BA68D0
:100440005A64FB79002B01D0012200E00022FB68F6
:100450001A641037BD4680BD0004004080B483B0EC
:1004600000AF78600B46FB701346BB707B68B3F13E
:10047000804F03D07B680A4A934200D100BF7B685B
:100480005B681B0C1B04FA7812021A43BB781A43F0
:100490007B685A600C37BD465DF8047B704700BF2F
:1004A0000004004080B582B000AF786039607B689E
:1004B000B3F1804F03D07B681E4A934200D100BF46
:1004C0007B68184600210022FFF736FF3B681B7847
:1004D000DB071A463B685B681B0613433A68127ACF
:1004E000520513433A68527A120513433A68927AD6
:1004F000920413433A68D27AD20313433A68127BC8
:10050000120313433A68127C92001A437B681A6004
:100510003B68DB7B1B061A467B685A607A683B683F
:100520005B7C104600211A46FFF706FF0837BD46E0
:1005300080BD00BF0004004080B582B000AF78608D
:1005400039607B681A1D3B681B789B0510464FF489
:1005500080011A46FFF72AFF7B6803F128023B68F7
:100560005B681B0610464FF07C511A46FFF71EFFD2
:100570007B6803F12C023B689B681B0610464FF01A
:100580007C511A46FFF712FF0837BD4680BD00BFF9
:1005900080B487B000AFF860B9607A60FB6803F19F
:1005A0000473DA00BB6813449B007B617B697A6843
:1005B0001A601C37BD465DF8047B704780B485B077
:1005C00000AF786039607B6803F1C063FB60FB6853
:1005D0003A681A601437BD465DF8047B704700BF67
:1005E00080B485B000AF786039607B6803F18063C8
:1005F000FB60FB683A681A601437BD465DF8047BFF
:10060000704700BF80B584B000AFF860B9607A6011
:10061000F868B968FFF7E4FFF8687968FFF7CEFF7C
:100620001037BD4680BD00BF80B489B000AF786090
:100630000B46FB701346BB70BB78002B04D0102315
:100640007B61644BBB6103E000237B61624BBB6158
:100650007B685A6BBB6913403B610023FB617B687D
:100660005E4A934205D15E4BFB60FB78022B40D083
:1006700000E0A9E0022B04DC002B09D0012B1DD0E7
:1006800098E0062B6CD0812B7BD0032B4AD091E0D5
:10069000FB681B6803F4FE43FA691343FB61FB68C4
:1006A0001B6803F00F03FA691343FB61FB681B68C7
:1006B00003F0F003FA691343FB617EE0FB681B68FB
:1006C00003F0FE431B0E1B02FA691343FB61FB6838
:1006D0001B6803F470231B0CFA691343FB61FB686E
:1006E0001B6803F470031B0D1B01FA691343FB61C4
:1006F00063E0FB6804331B6803F4FE43FA691343A9
:10070000FB61FB6804331B6803F00F03FA691343B2
:10071000FB61FB6804331B6803F0F003FA691343C1
:10072000FB614AE0FB6804331B6803F0FE431B0EC9
:100730001B02FA691343FB61FB6804331B6803F473
:1007400070231B0CFA691343FB61FB6804331B68BD
:1007500003F470031B0D1B01FA691343FB612CE0CA
:10076000FB6808331B6803F00F03FA691343FB614E
:10077000FB6808331B6803F0F003FA691343FB615D
:100780001BE0FB6804331B6803F4FE43FA69134360
:10079000FB61FB6804331B6803F00F03FA69134322
:1007A000FB61FB6804331B6803F0F003FA69134331
:1007B000FB6102E00023FB6100BF7B69FA699A409C
:1007C0003B691A437B685A632437BD465DF8047B56
:1007D000704700BFFFFF00800080FFFF0020004047
:1007E0001082E00F80B584B000AF786039603B685C
:1007F000DB78FB72FB7A002B06D11948002100F050
:10080000DFF80346FB7201E0164B1B687B680A2287
:100810009A603B681B781A063B689B781B0403F4BC
:10082000FE031A43FB7A1B0203F4FE4313433A68A8
:1008300052781343FB603B681B79002B03D0FB68A5
:1008400043F01003FB607B68FA681A603B685B79D1
:100850000448C0211A46FFF7D5FE1037BD4680BDBB
:100860000024F4000020004080B584B000AF786020
:1008700039607B6802229A603B689B7878681946E9
:100880000022FFF7D1FE3B685B781A063B681B79B4
:100890001B021A433B685B791B0413431A463B68EF
:1008A000DB78DB001343FB603B68DB79002B03D074
:1008B000FB6843F00053FB603B681B7A002B03D0BE
:1008C000FB6843F00403FB603B689B79002B03D07B
:1008D000FB6843F00203FB603B685B7A002B03D0AC
:1008E000FB6843F00103FB603B681B79F32B0DD1E0
:1008F0003B689B78002B09D13B685B78032B05D8BC
:10090000FB6823F0706343F08063FB603B689B7877
:10091000DBB25BB2002B04DAFB6843F0E003FB6060
:1009200006E03B689B785B011A46FB681343FB605B
:100930007B68FA681A617B685B6923F4F21323F021
:100940000703FB603B689B78DBB25BB2002B06DAE7
:100950003B689B7823F08003FA681343FB603B6895
:100960001B785B041A46FB681343FB603B68DB7A29
:10097000002B03D0FB6843F48043FB607B68FA687C
:100980005A617A683B689B7A104602211A46FFF743
:10099000FFFD3B681B79F32B07D17B68303318468A
:1009A00010210122FFF7F4FD06E07B683033184682
:1009B00010210022FFF7ECFD1037BD4680BD00BFBF
:1009C00080B584B000AF786039607B68134A934289
:1009D00002D9124B7B6006E07B68B3F5FA4F02D276
:1009E0004FF4FA437B603B68002B03D10C4800F0C6
:1009F000E3F938603A687B6813445A1E7B68B2FB9F
:100A0000F3F3FB60FB68002B02D0FB68013BFB604B
:100A1000FB68DBB218461037BD4680BD0024F400E9
:100A20004041050080B582B000AF78607B68002B44
:100A300008D10E4800F0C0F978607B68002B01D126
:100A400001237B607B6803F5742303F23F237B6003
:100A50007B68074AA2FB03239B0C7B607B68DBB2AD
:100A6000013BDBB218460837BD4680BD404105005A
:100A700083DE1B4380B487B000AFF860B9607A6052
:100A8000FB6803F10473DA00BB6813449B007B61CD
:100A90007B697A681A601C37BD465DF8047B704735
:100AA00080B483B000AF78607B68012202FA03F360
:100AB00018460C37BD465DF8047B704780B483B0A0
:100AC00000AF054B1B687B607B6818460C37BD4642
:100AD0005DF8047B704700BF1000002080B582B035
:100AE00000AFFFF7B5FB7860064BD3F8003103F495
:100AF000F8531B0A01337A6802FB03F318460837E0
:100B0000BD4680BD00400E4080B582B000AF0D48AC
:100B100000F04EFA0346FB70FB78072B05D0092B3B
:100B200007D1FFF795FB786006E0FFF7C7FF786015
:100B300002E000237B6000BF7B6818460837BD4693
:100B400080BD00BF06000C0080B584B000AF7860A7
:100B50007B68002B1CD11B4800F02AFA0346FB726D
:100B600000BFFB7A013B072B23D801A252F823F0E8
:100B7000950B0000B30B0000B30B0000A30B0000AB
:100B8000B30B0000B30B00009B0B0000AB0B00008D
:100B9000002312E00023FB600EE0FFF78FFFF860F8
:100BA0000AE0FFF78DFBF86006E0FFF797FFF860BB
:100BB00002E00023FB6000BFFB6818461037BD460B
:100BC00080BD00BF98002E0090B585B000AF786062
:100BD0000023BB607B68334A934206D0324A93427B
:100BE00003D0324A934200D000E000BF786800F0A2
:100BF000DFF90346FB607B682A4A93420DD02A4AFC
:100C0000934211D0294A934200D014E0284BD3F8E4
:100C1000803003F00703FB600DE0254BD3F88430F0
:100C200003F00703FB6006E0214BD3F8883003F0A4
:100C30000703FB6000BFFB68042B2ED801A252F80B
:100C400023F000BF950C0000590C0000610C00005F
:100C5000710C0000690C0000FFF74EFBB8601CE04F
:100C6000FFF75EFBB86018E0FFF750FBB86014E0D8
:100C7000FFF7CCFA04460E4BD3F8003103F0807333
:100C80001B0E01331846FFF70BFF0346B4FBF3F3CB
:100C9000BB6002E00023BB6000BFBB68184614378E
:100CA000BD4690BD03001C000500200002001A0094
:100CB00000400E4080B483B000AF78600A4BD3F898
:100CC000443103F00103002B00D007E000BF064BC6
:100CD000D3F840217B681340002BF8D10C37BD4678
:100CE0005DF8047B704700BF00400E4080B586B0C1
:100CF00000AF78600B46FB7000233B617B681B0AEA
:100D000003F00F03013B092B44D801A252F823F052
:100D1000390D0000450D0000950D0000950D0000F7
:100D20003F0D00004B0D0000550D0000950D00001B
:100D30005F0D00006B0D0000184B7B6118E0184B35
:100D40007B6115E0174B7B6112E0174B7B61012340
:100D50003B610DE0154B7B6110233B6108E0144BB8
:100D60007B614FF480333B6102E0124B7B6100BF3B
:100D70007B681B0B03F01F03FB603B69002B02D059
:100D80003869FFF797FFFB787869F9681A46FFF72B
:100D900071FE00E000BF1837BD4680BD00400E4028
:100DA000B0400E40C0400E40E0400E40E8400E40D3
:100DB000F0400E4050410E4080B584B000AF7860E6
:100DC0007B6803F47813B3F5901F7AD0B3F5901FC6
:100DD0001AD8B3F5002F4DD0B3F5002F08D8B3F5CE
:100DE000003F4BD0B3F5802F35D0002B2FD0CCE077
:100DF000B3F5402F00F0BC80B3F5602F00F0BC804D
:100E0000B3F5202F49D0C0E0B3F5E01F7FD0B3F594
:100E1000E01F09D8B3F5B01F7ED0B3F5D01F4BD07B
:100E2000B3F5A01F52D0B0E0B3F5281F60D0B3F5E2
:100E3000281F04D8B3F5001F00F09580A5E0B3F596
:100E4000301F7CD0B3F5381F00F09A809DE0FFF78B
:100E5000FFF9F8609CE0FFF7FBF9F8604F4BD3F81F
:100E60000C214F4B13401B0A0133FA68B2FBF3F31A
:100E7000FB608DE0FFF7ECF9F86089E0FFF7E8F937
:100E8000F860464BD3F80821454B13401B0A013349
:100E9000FA68B2FBF3F3FB607AE0FFF7D9F9F86088
:100EA0003E4BD3F8143103F4F8531B0A0133FA68AC
:100EB000B2FBF3F3FB606BE03A48FFF785FEF860A6
:100EC00066E03948FFF780FEF86061E03548FFF7DB
:100ED0007BFEF860314BD3F8203103F00F03184646
:100EE000FFF7DEFD0246FB68B3FBF2F3FB604FE069
:100EF0002C48FFF769FEF860284BD3F8203103F047
:100F000030031B091A46FB68D340FB6040E02748CA
:100F1000FFF75AFEF8603BE02448FFF755FEF86003
:100F20001E4BD3F8283103F030031B091846FFF796
:100F3000B7FD0246FB68B3FBF2F3FB6028E01B48F9
:100F4000FFF742FEF860154BD3F8283103F44073E5
:100F50001B0A04331846FFF7A3FD0246FB68B3FBE8
:100F6000F2F3FB6014E01048FFF72EFEF8600FE08C
:100F7000FFF7CAFDF8600BE0FFF7A0FDF86007E09F
:100F80000020FFF7E1FDF86002E00023FB6000BFF6
:100F9000FB6818461037BD4680BD00BF00400E40BC
:100FA00000FF010002001A000500200003001C00E1
:100FB00080B485B000AF78600123FB737B6803F0D9
:100FC0000F03BB60BB68013B072B00F2AD8001A2A1
:100FD00052F823F0F50F0000271000005710000012
:100FE000291100009D100000CD1000002911000003
:100FF000ED100000514BD3F8943003F00703032B9E
:1010000007D0042B02D0022B06D008E00223FB738A
:1010100008E00323FB7305E00423FB7302E00523D0
:10102000FB7300BF83E0454BD3F8803003F0070328
:10103000022B06D0042B07D0012B08D10323FB730E
:1010400008E00223FB7305E00A23FB7302E001239F
:10105000FB7300BF6BE0394BD3F8843003F0070318
:10106000013B032B16D801A252F823F07D1000009B
:10107000831000008F100000891000000323FB7311
:101080000BE00223FB7308E00A23FB7305E0062351
:10109000FB7302E00123FB7300BF48E0274BD3F84A
:1010A000883003F00703022B06D0042B07D0012B56
:1010B00008D10323FB7308E00223FB7305E00A2336
:1010C000FB7302E00123FB7300BF30E01B4B1B6F7F
:1010D00003F00103002B05D0012B00D027E00923EA
:1010E000FB7302E00723FB7300BF20E0134BD3F830
:1010F0005C3103F03003102B0CD0102B02D8002BE6
:1011000005D014E0202B08D0302B09D00FE00123AC
:10111000FB7308E00723FB7305E00423FB7302E085
:101120000823FB7300BF02E00023FB7300BFFB7BBF
:1011300018461437BD465DF8047B704700400E40EA
:1011400080B485B000AF786039607B6803F1C0631C
:10115000FB60FB683A681A601437BD465DF8047B93
:10116000704700BF80B485B000AF786039607B689D
:1011700003F18063FB60FB683A681A601437BD4670
:101180005DF8047B704700BF80B582B000AF0346B6
:101190003960FB71FB79002B1CD0FB79012B19D036
:1011A000FB79022B16D0FB79032B13D0FB79042B90
:1011B00010D0FB79052B0DD0FB79062B0AD0FB79DB
:1011C000072B07D0FB79082B04D0FB79092B01D022
:1011D000FB790A2BFA7913465B0013441B010C338D
:1011E00003F1804303F520433A68012101FA02F23A
:1011F00018461146FFF7B6FF0837BD4680BD00BF51
:1012000080B582B000AF03463960FB71FB79002BDB
:101210001CD0FB79012B19D0FB79022B16D0FB795E
:10122000032B13D0FB79042B10D0FB79052B0DD0A9
:10123000FB79062B0AD0FB79072B07D0FB79082B0B
:1012400004D0FB79092B01D0FB790A2BFA791346DC
:101250005B0013441B010C3303F1804303F520436F
:101260003A68012101FA02F218461146FFF768FFB9
:101270000837BD4680BD00BF90B585B000AFB960EE
:101280007B600346FB731346BB73FB7B002B1CD0B8
:10129000FB7B012B19D0FB7B022B16D0FB7B032B96
:1012A00013D0FB7B042B10D0FB7B052B0DD0FB7BDD
:1012B000062B0AD0FB7B072B07D0FB7B082B04D027
:1012C000FB7B092B01D0FB7B0A2BBB7B002B0DD0BA
:1012D0007B68002B05D0FB7B1846B968FFF790FFB1
:1012E00004E0FB7B1846B968FFF74EFFBB68072B8D
:1012F0001CD82B4CFA7B2A48F97B0B465B000B442D
:101300001B0103445968BB689B0018460F238340A8
:10131000DB430B40B97BB86880008140194313461A
:101320005B0013441B012344596024E01C4CFA7BEE
:101330001B48F97B0B465B000B441B01034408333D
:101340001968BB6803F18043083B9B0018460F23D4
:101350008340DB431940B87BBB6803F18043083B03
:101360009B0000FA03F3194313465B0013441B016F
:10137000234408331960BB7B002B0DD17B68002B05
:1013800005D0FB7B1846B968FFF73AFF04E0FB7B0A
:101390001846B968FFF7F8FE1437BD4690BD00BF88
:1013A00000A0004080B586B000AFF860B9607A60F8
:1013B000FB70BB68002B03D12448FFF7FDFCB8602D
:1013C000FB78202B0CD0202B02DC002B05D03AE040
:1013D000402B08D0602B09D035E010237B6108E05A
:1013E00008237B6105E006237B6102E004237B6127
:1013F00000BFBB685A017B69796801FB03F35B0896
:1014000013443B617B697A6802FB03F33A69B2FBE0
:10141000F3F33B613B69203B3B613B69DB003B6194
:101420003A690B4B13403B61FB681B6823F0600279
:10143000FB681A60FB681A68FB781A43FB681A603D
:10144000FB683A695A611837BD4680BD40410500C6
:10145000F8FF7F0080B485B000AF78600B46FB706A
:101460007B68114A93420BD07B68104A934207D0A5
:101470007B680F4A934203D07B680E4A934200D1A7
:1014800000BFFB78DB43FB60FB6803F00503FB60F8
:10149000FB685A007B68DA60FA787B68DA60143798
:1014A000BD465DF8047B7047000001400004014028
:1014B00000080140000C014080B582B000AF7860A8
:1014C00039607B68344A93420BD07B68334A93423D
:1014D00007D07B68324A934203D07B68314A9342FB
:1014E00000D100BF786800F05FF83B689B7C002B60
:1014F00005D07B681B6843F080427B681A603B68BC
:10150000DB7C002B07D03B681B7D63F07F03DBB2E5
:101510001A467B689A653B685B7B1A463B681B8A68
:1015200013433A68D2891A437B685A603B6859680A
:101530003B689A683B681B7B7868FFF733FF3B6822
:101540009B7D1B0703F0E0423B68DB7D1B0503F43A
:10155000E0031A437B681A663B685B7D002B05D06D
:101560007B681B6843F480327B681A607B685B6F22
:1015700023F030027B685A677B685B6F3A68127EA3
:101580001A437B685A673B681B781A467B68DA60A7
:101590000837BD4680BD00BF000001400004014087
:1015A00000080140000C014080B483B000AF7860B7
:1015B0007B682B4A93420BD07B682A4A934207D020
:1015C0007B68294A934203D07B68284A934200D122
:1015D00000BF7B6840F6AA62DA607B6800221A606E
:1015E0007B6841F205025A607B6800229A607B6842
:1015F00000225A617B680022DA647B681C4A9A6484
:101600007B6800225A677B6800229A677B68002209
:10161000DA677B68124A93420BD07B68114A934287
:1016200007D07B68104A934203D07B680F4A9342ED
:1016300002D17B6800221A657B6800229A657B686C
:10164000084A934203D07B68084A934202D17B68E0
:101650000022DA650C37BD465DF8047B704700BF99
:10166000000001400004014000080140000C01405E
:10167000F9FF010080B483B000AF786000BF7B68E1
:101680001B6903F08003002BF9D07B68DB69DBB2B8
:1016900018460C37BD465DF8047B704780B400AF38
:1016A000044BDB6C1B0EDBB21846BD465DF8047BB9
:1016B000704700BFB081E00F80B582B000AFFFF788
:1016C000EDFF0346FB71FB79002B0CD1104B4AF662
:1016D000E8521A600F4A0F4B1B6843F00403136073
:1016E0000B4B00221A60FB79012B05D80A4A0A4BE2
:1016F0001B6843F400531360084A084B1B6A23F429
:10170000441343F4881313620837BD4680BD00BFFD
:1017100090310E4098310E4064310E4000400E4032
:1017200080B500AFFFF7C8FF03480121FFF7DEFADD
:1017300000F0CEF8FEE700BF4041050080B483B062
:1017400000AF0346FB71084997F907305B09FA7946
:1017500002F01F02012000FA02F241F823200C37A8
:10176000BD465DF8047B704700E100E080B483B0C3
:1017700000AF0346FB71094997F907305B09FA7915
:1017800002F01F02012000FA02F2603341F8232028
:101790000C37BD465DF8047B704700BF00E100E0F8
:1017A00080B485B000AF786039607B6803F1C063B6
:1017B000FB60FB683A681A601437BD465DF8047B2D
:1017C000704700BF80B483B000AF7860034A7B6885
:1017D00093650C37BD465DF8047B704700500540AB
:1017E00080B483B000AF786039607B683A689A64EF
:1017F0000C37BD465DF8047B704700BF80B483B0F2
:1018000000AF786039607B68DA6C3B681A437B68AC
:10181000DA640C37BD465DF8047B704780B483B052
:1018200000AF786039607B683A685A610C37BD4612
:101830005DF8047B704700BF80B483B000AF786070
:1018400039607B689A693B681A437B689A610C37F8
:10185000BD465DF8047B704780B582B000AF03469B
:101860003960FB71FB79002B1CD0FB79012B19D05F
:10187000FB79022B16D0FB79032B13D0FB79042BB9
:1018800010D0FB79052B0DD0FB79062B0AD0FB7904
:10189000072B07D0FB79082B04D0FB79092B01D04B
:1018A000FB790A2BFA7913465B0013441B010C33B6
:1018B00003F1804303F520433A68012101FA02F263
:1018C00018461146FFF76CFF0837BD4680BD00BFC4
:1018D00080B500AF00F00CF800F0BEF800F014F98D
:1018E00000F01AF900F04CF90023184680BD00BF43
:1018F00080B586B000AF24480121FFF7F7F9002337
:101900003B7400237B741F23BB740023FB740023F0
:101910003B7500237B7500233B7100237B71002303
:10192000BB710023FB7100233B72FF237B720023FA
:10193000BB720023FB7200233B7300237B730023E5
:10194000BB730023FB730020FFF76CF80346BB74E6
:101950000E480021FFF734F80346FB7407F110032B
:101960000B481946FEF73EFF0323BB7104237B712E
:1019700062233B723B1D06481946FEF775FF0023A4
:1019800018461837BD4680BD00D20400801A0600F4
:101990000020004098B500AF264B1B6903F0800380
:1019A000002B45D0244B01221A70244B1B78DBB24C
:1019B000002B27D1224B1C681E48FFF75BFE034615
:1019C0001A46204B1A551E4B1B6801331C4A1360E4
:1019D0001D4B1B6801331C4A1360194B1B68062BF7
:1019E00002D1174B00221A60174B1B68062B1FDD14
:1019F000134B00221A60144B00221A60134B002272
:101A00001A6015E0124B1C680A48FFF733FE0346C4
:101A10001A46104B1A550E4B1B6801330C4A1360C3
:101A20000B4B1B68B3F5007F02D1094B00221A60F3
:101A300098BD00BF00000140CC000020CD00002078
:101A4000C0000020D0000020C8000020BC00002002
:101A5000C4000020D8000020B0B588B000AF2648F0
:101A60000121FFF743F90220072104220123FFF798
:101A700003FC0220082101220023FFF7FDFB1F4B7E
:101A8000FB611F4B3C461D460FCD0FC495E8070078
:101A900084E807001B480121FFF728F900233B7069
:101AA0003B46F8691946FFF707FDFB6903225A67B1
:101AB000FB699B6F23F4F85323F01F0343F4406347
:101AC00043F00C03FA6993670C480421FFF788FE82
:101AD0000C20FFF74BFE09480421FFF78FFE0C2076
:101AE000FFF72CFEF8690521FFF7B4FC0023184628
:101AF0002037BD46B0BD00BF0035080000000140E2
:101B0000B41C00000042040080B400AF002318465B
:101B1000BD465DF8047B704780B500AF03200A2105
:101B200001220023FFF7A8FB06480121FFF7DEF89A
:101B300003200E2104220023FFF79EFB00231846FA
:101B400080BD00BF0035080080B500AF03200E2126
:101B5000FFF782FE80BD00BF80B500AF4FF48070FC
:101B6000FFF730FEFFF7F0FF80BD00BF80B500AF8C
:101B70004FF080400121FFF751FEFFF7E5FF80BDE8
:101B800080B500AF20480121FFF7B0F81F4B0122BC
:101B90001A721E4B00225A721C4B0D225A731B4B99
:101BA00000225A741A4B0A225A60194B0A229A6070
:101BB0004FF080401549FEF775FC4FF08040144906
:101BC000FEF7BAFC4FF08040FC218022FEF746FC75
:101BD0004FF08040002100220023FEF713FC4FF05D
:101BE00080400121FFF728FE4FF080400121FFF7E0
:101BF00015FE0E20FFF7A2FD4FF08040FEF7E8FB38
:101C00000023184680BD00BF00A20400140000207D
:101C10002800002008B5074B044613B10021AFF39C
:101C20000080054B1868836A03B19847204600F08E
:101C300033F800BF00000000101D000070B50E4B0F
:101C40000E4CE41AA41000251E46A54204D056F8F6
:101C5000253098470135F8E700F020F8084C094B8B
:101C6000E41AA41000251E46A54204D056F82530DB
:101C700098470135F8E770BD9400002094000020DB
:101C8000980000209400002002440346934202D0B2
:101C900003F8011BFAE77047FEE700BFF8B500BF85
:101CA000F8BC08BC9E467047F8B500BFF8BC08BC3D
:101CB0009E467047050000000000000000C20100C1
:101CC00000050000001000000000000000000000FF
:101CD0000000000000000001010000000000000002
:101CE00000000000000100000000000000000202EF
:101CF00000000030000000000000000000000000B4
:101D00000001010101010000010203004300000085
:081D1000340000200000000077
:081D180050E4FF7F0100000010
:101D2000005A620200800000C0EA2101C0EA2101DD
:101D3000C0EA2101000000000700000000000000D0
:101D40000005050000010000000000003F00000049
:101D50003F00000000000000000000000000000044
:101D60000000000000000000000000000000000073
:101D7000000000000C1D000000000000000000003A
:101D80000000000000000000000000000000000053
:101D90000000000000000000000000000000000043
:101DA0000000000000000000000000000000000033
:101DB00000000000310100000D01000000000000E3
:04000003000001DD1B
:00000001FF
