:1000000000000420DD0100000902000009020000D8
:1000100009020000090200000902000009020000B4
:1000200009020000090200000902000009020000A4
:100030000902000009020000090200000902000094
:100040000902000009020000090200000902000084
:100050000902000009020000090200000902000074
:100060000902000009020000090200000902000064
:100070000902000009020000090200000902000054
:100080000902000009020000090200000902000044
:100090000902000009020000090200000902000034
:1000A0000902000009020000090200000902000024
:1000B0000902000009020000090200000902000014
:1000C0000902000009020000090200000902000004
:1000D00009020000090200000902000009020000F4
:1000E00009020000090200000902000009020000E4
:1000F00009020000090200000902000009020000D4
:1001000009020000090200000902000010B5054CB8
:10011000237833B9044B13B10448AFF300800123B3
:10012000237010BD6C00002000000000640300007C
:10013000084B10B51BB108480849AFF300800848C8
:10014000036803B910BD074B002BFBD0BDE810407E
:10015000184700BF0000000064030000700000208A
:100160006800002000000000154B002B08BF134B57
:100170009D46A3F5803A00218B460F461348144A4A
:10018000121A00F0D5F80F4B002B00D098470E4BF9
:10019000002B00D098470020002104000D000D48DE
:1001A000002802D00C48AFF3008000F09BF820003C
:1001B000290000F07DF800F081F800BF0000080081
:1001C0000000042000000000000000006C0000207F
:1001D0008800002000000000000000000648804762
:1001E0000649074A074B9A42BEBF51F8040B42F832
:1001F000040BF8E7FFF7B8FF0D02000070030000E2
:10020000000000206C000020FEE700BF80B400AFBB
:10021000054A054BD3F8883043F47003C2F88830A0
:10022000BD465DF8047B704700ED00E080B400AF90
:10023000044BDB6C1B0EDBB21846BD465DF8047B3D
:10024000704700BFB081E00F80B582B000AFFFF70C
:10025000EDFF0346FB71FB79002B0CD1104B4AF6E6
:10026000E8521A600F4A0F4B1B6843F004031360F7
:100270000B4B00221A60FB79012B05D80A4A0A4B66
:100280001B6843F400531360084A084B1B6A23F4AD
:10029000441343F4881313620837BD4680BD00BF82
:1002A00090310E4098310E4064310E4000400E40B7
:1002B00080B500AFFFF7C8FFFEE700BF08B5074BEA
:1002C000044613B10021AFF30080054B1868836A20
:1002D00003B19847204600F033F800BF000000004B
:1002E0006003000070B50E4B0E4CE41AA4100025FC
:1002F0001E46A54204D056F8253098470135F8E748
:1003000000F020F8084C094BE41AA41000251E4602
:10031000A54204D056F8253098470135F8E770BD5E
:1003200060000020600000206400002060000020C9
:1003300002440346934202D003F8011BFAE77047D8
:10034000FEE700BFF8B500BFF8BC08BC9E4670478A
:10035000F8B500BFF8BC08BC9E46704743000000DB
:08036000000000200000000075
:0803680000FEFF7F0100000010
:10037000000000000000000000000000000000007D
:10038000000000000000000000000000000000006D
:100390005C030000000000000000000000000000FE
:1003A000000000000000000000000000000000004D
:1003B000000000000000000000000000000000003D
:1003C000000000000000000000000000000000002D
:0C03D000310100000D01000000000000E1
:04000003000001DD1B
:00000001FF
