S012000050616E6F7074696E6F64652E73333761
S113000000000420DD0100000902000009020000D4
S113001009020000090200000902000009020000B0
S113002009020000090200000902000009020000A0
S11300300902000009020000090200000902000090
S11300400902000009020000090200000902000080
S11300500902000009020000090200000902000070
S113006009020000090200005529000009020000ED
S11300700902000009020000090200000902000050
S11300800902000009020000090200000902000040
S11300900902000009020000090200000902000030
S11300A00902000009020000090200000902000020
S11300B009020000090200003D0A000009020000D4
S11300C00902000009020000090200000902000000
S11300D009020000090200000902000009020000F0
S11300E009020000090200000902000009020000E0
S11300F009020000090200000902000009020000D0
S113010009020000090200000902000010B5054CB4
S1130110237833B9044B13B10448AFF300800123AF
S1130120237010BDE000002000000000A062000069
S1130130084B10B51BB108480849AFF300800848C4
S1130140036803B910BD074B002BFBD0BDE810407A
S1130150184700BF00000000A0620000E400002077
S1130160DC00002000000000154B002B08BF134BDF
S11301709D46A3F5803A00218B460F461348144A46
S1130180121A03F016FB0F4B002B00D098470E4BAE
S1130190002B00D098470020002104000D000D48DA
S11301A0002802D00C48AFF3008003F0D1FA2000FD
S11301B0290002F083FA03F0B7FA00BF0000080038
S11301C0000004200000000000000000E000002007
S11301D07C0A002000000000000000000648804760
S11301E00649074A074B9A42BEBF51F8040B42F82E
S11301F0040BF8E7FFF7B8FF8D020000AC620000C3
S113020000000020E0000020FEE700BF0048704727
S1130210005A62020D4AD2F8943003F00703032B0C
S11302200AD0042B03D0022B03D1094B02E0094B63
S113023000E0094B186801E04FF40040D2F80031A7
S1130240C3F304230133B0FBF3F0704700400E40C6
S113025004000020000000200C00002008B5FFF777
S1130260D9FF054BD3F80831C3F308230133B0FB9E
S1130270F3F0024B186008BD00400E400800002057
S1130280014B1868704700BF04000020034AD2F8ED
S1130290883043F47003C2F88830704700ED00E002
S11302A04FF4004070474FF47A707047014B186860
S11302B0704700BF0000002010B5084B1A780AB13F
S11302C0002010BD0122064C1A7054F8043F002B84
S11302D0F6D098470028F8D010BD00BF2C010020AC
S11302E00C00002008B5094A1278034652B10028D0
S11302F00ADC084606492C2202FB031103F04EFADD
S1130300002008BD034808BD034808BD2C01002097
S113031000010020050011800200118008B50B4B7C
S11303201B7801466BB10A4A1368002B0BDC581C7E
S1130330106008482C2202FB030003F02FFA00206F
S113034008BD054808BD054808BD00BF2C010020B4
S1130350FC00002000010020050011800100118034
S113036010B580290DD1084908480C6804EB021225
S113037082424FF000008BBF18601C6004480A6082
S113038010BD044810BD00BF180000202D09002036
S113039001001180020011800048704704001180A0
S11303A008B500F023F900F0DBF8002008BD70B5B3
S11303B00E461D460024AC4206EB041005D0002175
S11303C0102203F0F6F90134F5E7002070BD2DE9A1
S11303D0F3410F4603200E21099E00F033F9062055
S11303E000F009F9089C0134A4B202AD230243F0E1
S11303F0010325F8023D0221284600F0D9F84FF008
S11304000008B04507EB081016D0102100F0D0F812
S1130410731E98451DBF631C43441B024FF6FF73B4
S113042018BF43F0FF0328460221ADF8063008F157
S1130430010800F0BDF8E4E7022000F0DCF80E212A
S1130440032000F00BF9002002B0BDE8F08108B5EC
S11304500D21032000F00EF9002008BD08B503208B
S113046019B10F2100F0EEF802E00F2100F0F6F8C8
S1130470002008BD10B58CB000F0B8F800F070F89A
S113048000F0C8F8002213460821022000F0CCF83E
S1130490002213460621022000F0C6F8002213466B
S11304A00E21032000F0C0F8002213460F21032080
S11304B000F0BAF800220D211346032000F0B4F82E
S11304C01F480021802200F09BF8002835D11D4BE5
S11304D0019301238DF81430802302930493039332
S11304E0194B0693194B0793194B0893194B09930E
S11304F0194B8DF815000A9301A8184B0B93FFF7BD
S11305000DFF0446C0B90F21032000F09BF80E2113
S1130510032000F097F8062000F06DF80CA80423DF
S1130520022120F82E3D00F043F8022000F063F889
S113053003200E2100F092F820460CB010BD00BF3D
S11305404F040000345A00005D0400006103000001
S113055099030000CF030000AF030000A1030000D3
S113056030B587B00E4D0FCD6C460FC495E803002F
S113057084E803000B4C0C48012101F0A5F80B4B57
S113058002932046694601F0E9FF0A236367A36FDB
S113059023F01F2343F00B230020A36707B030BDD3
S11305A04C5A00000004014000520400E06735008A
S11305B038B505460C4684B1012C0B4801D0EA0736
S11305C005D515F8011B02F00BF8013CF3E735F8EB
S11305D0021B02F00AF8023CEDE7034B1B699B0681
S11305E0FBD5002038BD00BF0004014008B500F071
S11305F065FA002008BD08B500F038FB002008BDEE
S113060008B502F04FF90028014808BF002008BDD2
S11306100200138008B50348012101F055F80020B9
S113062008BD00BF0035080010B514462AB9C0B291
S1130630042201F0D5FE204610BD014810BD00BFC4
S113064001001380012303FA01F2C0B2302358439E
S1130650014B1A50002070470CA00046012303FAF6
S113066001F2C0B230235843014B1A5000207047A6
S11306700CA00044012303FA01F2C0B23023584312
S113068000F1804000F520408261002070470000A6
S11306902DE9F843274C064604F1A00500236371B5
S11306A02379002B40D054E906230021994208BF46
S11306B0964205D2901B63EB010144E9060133E045
S11306C0E7790FB927712BE054E90489B01A61EB7B
S11306D0030142464B4602F059FDB8EB020054F8C0
S11306E0082C69EB0301002A44E9060154F8043C90
S11306F008DD1344F32B44F8043C11D9013041F1D3
S1130700000108E09B1AF32B44F8043C08D910F1CB
S1130710FF3041F1FF3144E90601F43B44F8043C65
S113072023680BB1012363712834AC42B6D1BDE810
S1130730F88300BF4809002038B5074C0025637FC3
S11307401BB1A369216A284698470135042D04F199
S11307502804F4D138BD00BF30090020F0B50021D1
S11307604FF0FF324FF0FF33164C0C44257F3DB160
S1130770D4E900459D4208BF94423CBF22462B4623
S11307802831A029F0D1104900240C705C1C08BF4A
S1130790B2F1FF3F0C4614D000279F420B496FF083
S11307A0640608BF9642086038BF324608490425EB
S11307B002440D6201234A6523704B6A43F004032B
S11307C04B62F0BD300900202D090020D40900201F
S11307D00020044038B5054601F0B8FC00230A495E
S11307E0282202FB0312947F24B10133042BF6D197
S11307F0064C05E01DB1012191772B6000E0044C0B
S113080001F0A8FC204638BD30090020011000F09A
S1130810041000F070B51D4B1C78002C33D1012559
S11308201B481D70294600F04FFF1A4E1A4802213A
S113083001F07EFB032329461848337100F044FF7E
S1130840304601F029FE2846154901F005FE154AF7
S11308501548536A23F4FF6323F00703536240F2FD
S1130860FF731362114B94604FF08042C3F88021F0
S113087021461A60A02202F09CFF0D4B1C700D4B08
S11308801C700D4B1C60002070BD00BF2E090020A1
S1130890002508001C00002005002000800912002B
S11308A025000020002004403009002000E100E081
S11308B02F0900202D090020D00900202DE9F84F30
S11308C003280746894693461E4600F2A48001F099
S11308D03DFC524A282404FB07248046A17F92460B
S11308E021B901F037FC4E48BDE8F88FBBF1000F89
S11308F006D1002E00F0898038460A99B04784E07A
S1130900484A4FF400434FF47A6000219568A66189
S1130910E3FB0B014FF4FA52002302F037FCB9F168
S1130920010FC4E9020109D14FF47A7303FB0BFBF5
S1130930F42303FB10B323617A236361282303FBAD
S113094007A301301A4641F10001E2E8060101243F
S1130950147182F807900A9A1A62334B1B78002BA1
S113096053D1324C236801331EBF23680133236003
S11309702F4B1A789946B2B92E4B2A4E1D60042388
S1130980336200238B426FF0640208BF824238BF97
S1130990104628447065736A43F0040373620123AC
S11309A089F800302BE02368012B28D1282303FB8E
S11309B007A300261E771B4ADFF878B0536A23F09A
S11309C004035362DBF80000281AFFF761FEFFF707
S11309D0B3FE26B9282303FB07A301221A7728466E
S11309E0FFF7BCFE0F4BDBF800209D685B6DA91A76
S11309F09B1A99F8002001360AB19942DBD8236882
S1130A000A4A13B11368013B1360404601F0A2FB8C
S1130A100020BDE8F88F0848BDE8F88F30090020B1
S1130A20031000F0002004402F090020D00900200A
S1130A302D090020D4090020021000F02DE9F04116
S1130A4001F084FB194B5A6A99690A4022F00501A6
S1130A5052070646196223D5154AD3F808800121A6
S1130A6011701746114C134D636A23F0040363623B
S1130A702868C0EB0800FFF70BFEFFF75DFE404659
S1130A80FFF76CFE2A68D4F80880636DC2EB080196
S1130A909B1A094A12780AB19942E3D800233B70A1
S1130AA03046BDE8F04101F055BB00BF00200440D2
S1130AB02F090020D40900202D0900202DE9F04F32
S1130AC087B0624A624C10685168127A03AB03C360
S1130AD01A70D4F8B0305A0705D45E48012100F0EA
S1130AE0F3FD012600E000265B4800F089FE0321A7
S1130AF007465948D4F8905001F01AFA574800F0C4
S1130B0079FED4F8F0300090DB0705F0400506D4F8
S1130B105248012100F0D8FD4FF0010801E04FF0E8
S1130B20000801F013FB4E4B01901C68002214F0E6
S1130B3001041FBFD3F800905C6A1A605A621FBF99
S1130B4040F2FF721A62474B4FF0804218BFC3F85D
S1130B5080214FF000038DF80E308DF80F3003A87C
S1130B604FF008038DF8103012BF4FF0010AA14670
S1130B70A24601F091FC3C4B4FF480521A601A6873
S1130B8052001A606AB1364A9068D2F808E03449D3
S1130B907045FAD08A6818680138FDD8896891428E
S1130BA0EDD01A6852081A601A680920013820D05A
S1130BB052081ED01968114319602949D1F808B0A8
S1130BC0D1F808C0DFF898E0E345F9D02649DEF80B
S1130BD008C0D1F800B0BBF1010BFCD8DEF808E086
S1130BE0E6451EBFD1F800E02EEA020EC1F800E08F
S1130BF0DCE7019801F0AEFABAF1000F08D017480B
S1130C00009901F029F8164BC3F800905C6202E0E9
S1130C10504601F03BFCB8F1000F03D00F4800210F
S1130C2000F052FD032F03D00B48394601F080F940
S1130C3025B9012029462A4601F0FCF81EB10548D1
S1130C40002100F041FD07B0BDE8F08F645A0000B8
S1130C5000400E4000250800050020008009120015
S1130C600020044000E100E02C0000200346084975
S1130C70002B0CD0013B88221202003253430A6835
S1130C80D80AD20A5043800901D00138FDD87047F0
S1130C902C000020044B1B781BB1044B0360002084
S1130CA070470120704700BF140A0020080A002082
S1130CB070B50D4C247884B10C4C26888518B54247
S1130CC00DDC6688CD18B54209DC52B14BB1A08069
S1130CD0E18022816381002070BD012070BD042069
S1130CE070BD052070BD00BF140A0020080A002052
S1130CF02DE9F04F85B00193524B0F9F1B78002BC9
S1130D0000F09980504B1D68002D00F094804F4BEB
S1130D105C7C9B46002C40F090804D4A9B68D288B6
S1130D2001EB0209DB081FFA89F903FB0955A24606
S1130D30002F7ED0464A9BF8101014899288241AFA
S1130D40BC4228BF3C460129A7EB04075FD8019E9B
S1130D50002E0CBFFF260026012904BFF643F6B27D
S1130D601044072C80B21CD8044466B1A0424ED271
S1130D70C10800F007060122B2406E5C0130324324
S1130D806A5480B2F2E7A04241D2C60800F00701DB
S1130D9001228A40A95D013021EA0202AA5580B2EB
S1130DA0F1E7C10810F0070005EB010811D001229A
S1130DB0824015F801E0013AD2B202EA0E0E26EAA8
S1130DC0020242EA0E0E083805F801E008F10108B3
S1130DD004445FEAD40C0ED0404662463146039385
S1130DE0CDF808C002F0E5FCDDF808C0039BB4EBC5
S1130DF0CC04E0440BD00122A24098F80010013A40
S1130E00D2B221EA020116400E4388F800600AEBD0
S1130E10090254110F4802F01F020121914050F8B9
S1130E2024200A4340F824200AF1010A1D4400202A
S1130E307EE7384602E0012000E00A2005B0BDE864
S1130E40F08F00BF140A0020D8090020DC0900201C
S1130E50080A0020640A002070B50546094C0A48B7
S1130E60234686694168C268B04723683BB12B605A
S1130E70FF211022054802F09CFC002070BD0B20CD
S1130E8070BD00BFD8090020DC090020640A0020DE
S1130E90F7B5174E33781BBBFFF70EFA044608BBB1
S1130EA0144D2946FFF71EFAF8B9134F3846FFF7D9
S1130EB0D3FF0446B0B93B68B3B1104BA988AA89E3
S1130EC019805A8019815A819880D8804A43012315
S1130ED0337001920090014602460346FFF708FF73
S1130EE0002002E0204600E00B2003B0F0BD00BF6C
S1130EF0140A0020DC090020D8090020080A002078
S1130F002DE9F743234E244FB5683C680023ED08D0
S1130F104FF001081946F2681E4803EB0109914598
S1130F2020D214F0010201D0013312E083B1DFF8C2
S1130F306CE0DEF800E08DE80A0005FB01E1D0F882
S1130F4020C04368E04708BB09F10101034600E003
S1130F5001315A18D2060ABF57F82840640808F12C
S1130F600108D8E733B90C480021102202F021FC13
S1130F7000200BE0094A12688DE80A0005FB0121F4
S1130F80046A43680022A0470028ECD003B0BDE8FF
S1130F90F08300BFDC090020640A0020D809002087
S1130FA030B1036800201A885B880146FFF780BED1
S1130FB00520704737B5054690B14468FFF7F0FF48
S1130FC0014670B92A68E3B20093558913896B43CB
S1130FD00193C4F30742C4F30723FFF789FE00E03B
S1130FE0052003B030BD034658B1198A5A699B697C
S1130FF0808901320133121A5B1A92B29BB2FFF755
S113100057BE05207047F0B5D8B1D1B10E688C68D1
S1131010A64218DA4D68CA68954214DA002E14DB29
S1131020002D12DB01680F88A7420EDD498891422A
S11310300BDDC660056144618261BDE8F040FFF7E5
S1131040D2BF0520F0BD0420F0BD0320F0BD000098
S113105030B587B00546E8B1002343606FF07F43A5
S1131060836001A8FFF716FEB8B9019B2B601A88AC
S11310705B8802900390013A013B284602A904923E
S11310800593FFF7C0FF044630B92846044900F031
S11310902AF901E0052000E0204607B030BD00BF7A
S11310A0A05D000073B50E461546044688B10C30A9
S11310B000F02FF878B1A368DAB20092012201920D
S11310C0B0B2C3F30742A9B2C3F30723FFF710FE7C
S11310D002E0052000E0012002B070BD73B50E46A9
S11310E015461C4680B10C3000F013F870B1E3B221
S11310F0009301230193B0B2A9B2C4F30742C4F32D
S11311000723FFF7F5FD02E0052000E0012002B00F
S113111070BD78B1036899420BDB8368994208DC9F
S113112043689A4205DBC0688242CCBF002001209C
S11311307047002070472DE9F04F85B09B469DF81D
S11311403830029392460446002800F08980A1F1C9
S11311502005EBB25E2B00F2858090F82830022B3C
S113116006D13A2906D0202906D030398DB204E0C0
S1131170ADB202E00A2500E00B25238CAB4271DD01
S1131180E36900934FF00008474694F825301FFAAE
S113119088F2934201925FD994F82230012B05D052
S11311A0022B07D1009B33F8159006E0009B13F83F
S11311B0059002E0009B33F825904FF0000C94F862
S11311C024301FFA8CF6B34228D919F0010F0AD043
S11311D0019BCDF80CC020460AEB06010BEB030281
S11311E0FFF760FF0BE0029B7BB120460AEB060190
S11311F01BFA88F26368CDF80CC0FFF76FFF012873
S113120031D8DDF80CC000B901374FEA59090CF1A7
S1131210010CD4E7029B4BB90136B6B294F82420F2
S113122094F8273013449E42F4DB0EE0019B2046E1
S11312300BEB03020AEB06016368FFF74FFF01287B
S113124011D80028E8D10137E6E794F823100D44BB
S1131250ADB208F1010898E7B7FA87F0400902E057
S1131260052000E0022005B0BDE8F08F2DE9F74F1E
S11312709B460C9E9DF834A0054670B369B390F864
S1131280283063B30C4601EB02095F464FF00008B7
S11312904C451ED014F8011B0A2907D195F82530B6
S11312A01E4495F826305F461E44F1E7CDF800A0B1
S11312B028463A463346FFF73EFF012810D808B9BE
S11312C008F1010895F8242095F8273013441F44A9
S11312D0DEE7B8FA88F0400902E0052000E00220C9
S11312E003B0BDE8F08F08B548B11C30102211B925
S11312F002F05FFA03E002F051FA002008BD052075
S113130008BD000070B5284B284D446B002A08BF67
S11313101D46274B14BF10260026984243D10229AC
S11313202ED004D859B1012937D1224B13E0062914
S11313301ED0812924D003292FD11F4B0BE01D4837
S11313400168026801F4FE4302F00F021A430368C5
S113135003F0F0031FE019681A681B68C3F3035312
S1131360C1F306611B0143EA0123C2F3034212E005
S1131370124B1A681B6802F00F0203F0F0030AE034
S11313800D490A680B6803F00F0002F4FE430A6873
S1131390034302F0F002134300E00023B3402C4067
S11313A0034A2343536370BD0080FFFFFFFF0080A7
S11313B0002000401082E00F1482E00F1882E00F3A
S11313C038B50D4602238360897800220446FFF76E
S11313D099FF687829796A79030643EA012343EA85
S11313E00243EA7843EAC203EA790AB143F00053BC
S11313F02A7A0AB143F00403AA790AB143F002033A
S11314006A7A0AB143F00103F329AA7806D12AB90A
S113141003289CBF23F0706343F0806350B200281C
S1131420ACBF43EA421343F0E0032361636900283D
S113143023F4F21323F00703BCBF22F0800213430A
S11314402A7843EA4243EA7A0AB143F48043636167
S11314506301303403F184436401AA7A9A60F32966
S113146004F184440CBF01230023236438BD00002D
S113147010B50C4B04469C42084605D8B4F5FA4F07
S113148038BF4FF4FA4400E01C4610B9064800F097
S113149059FA611E0844B0FBF4F000B10138C0B23F
S11314A010BD00BF0024F4004041050038B50C46CF
S11314B0C978054621B91148FFF7DAFF014601E072
S11314C00F4B1B6822780A23AB60637843EA0262FD
S11314D0A3781B0403F4FE030902134301F4FE4141
S11314E0194323790BB141F01001064B2960C02147
S11314F06279196003F100731A6038BD0024F400A6
S1131500002000400020004408B528B9074800F036
S113151019FA002808BF012000F57420044B00F2DA
S11315203F20B0FBF3F00138C0B208BD40410500D4
S113153040420F0070B5114B41F671321D6C1A64B4
S11315405B6800230E4C04EBC30216798E4203D170
S113155054F83340A0420ED90133052BF2D10321B4
S1131560064A536823F0407343EA0163536025B18C
S11315700023136470BD5179F2E770BD00000E4082
S1131580E0600000234B984231D011D8224B98429E
S113159029D003D8214B984225D038E0204B9842DB
S11315A021D0204B984232D11F4BD3F88C00704786
S11315B01E4B984223D00CD81D4B98421BD003F5E8
S11315C0371303F5D863984221D1174BD3F8A00001
S11315D07047184B984216D0174B984217D1124BAC
S11315E0D3F8B0007047104BD3F8800070470E4B0F
S11315F0D3F8980070470C4BD3F89C0070470A4B03
S1131600D3F8A8007047084BD3F8AC00704700200B
S1131610704700BF405DC60080841E0040420F003A
S113162000093D00C0CF6A00B081E00F80BA8C0190
S11316300024F4000048E80180D5430208B5FEF711
S1131640E5FD0021BDE80840FFF774BF044BD3F863
S11316504421D20703D4D3F840211042FBD1704770
S113166000400E400C4B984205D90C4B984204D9CB
S11316700222012303E0002200E00122134608496C
S11316800B600849D1F8003123F0807343EA026308
S1131690C1F80031704700BF0048E8010090D00352
S11316A04000C84300400E40044B1B68002BFBD194
S11316B0034B5868C0F30140704700BFC800C643DD
S11316C000300E40FFF736BF70B5C0F30322013A75
S11316D003460E46092A26D8DFE802F01808252515
S11316E0050B0E25111500200F4C11E000200F4CA6
S11316F00EE001200E4C0BE010200E4C08E04FF4DD
S113170080300D4C04E000200C4C01E00C4C002017
S1131710C3F3043508B1FFF799FF04F1047405EB32
S1131720C404A400266070BDB0400E40C0400E400A
S1131730E0400E40E8400E40F0400E4050410E4064
S113174000400E40C0F30313013B062B48D8DFE8EA
S113175003F004080E14181E2E00224BD3F80001C7
S113176002E0204BD3F81401C0F3042070471D4B52
S1131770D3F80001C0F3006070471A4BD3F80C0192
S113178002E0184BD3F80801C0F308207047164B49
S1131790984206D0154B984222D1124BD3F82031EF
S11317A018E0104BD3F8203103F00F0314E0104B72
S11317B098420CD003F5B01303F5805398420FD12F
S11317C0084BD3F82831C3F30123043304E0054B59
S11317D0D3F82831C3F3011301209840013870472E
S11317E00020704700400E406006140060162A0076
S11317F07017160008B5FFF7A5FF013008BD0000FB
S113180000F00F000138072848D8DFE800F0040E84
S11318101847232D4735244BD3F8943003F007039E
S1131820023B022B3CD8214A12E01F4BD3F88030F4
S113183003F00703013B032B34D81D4A08E01A4B7D
S1131840D3F8843003F00703013B032B2AD8194A49
S1131850D05C7047144BD3F8883003F00703013B86
S1131860032B1FD8144AF3E70F4B1B6F13F0010F20
S113187014BF0920072070470B4BD3F85C3103F0E9
S11318803003202B06D0302B06D0102B0CBF0720A2
S113189001207047042070470820704700207047DB
S11318A0052070470120704700400E40DC600000B6
S11318B0D0600000D4600000D860000010B5044679
S11318C0FFF79EFF1B4B9C4209D01B4B9C420AD046
S11318D01A4B9C420CD11A4BD3F8800006E0184BEB
S11318E0D3F8840002E0164BD3F8880000F0070018
S11318F0013803281CD8DFE800F002060E0ABDE810
S11319001040FEF7CDBCBDE81040FEF7CFBCBDE8EB
S11319101040FEF7C8BCFEF7A1FC094BD3F8002128
S1131920C2F30062013201239340B0FBF3F010BD17
S1131930002010BD03001C000500200002001A0056
S113194000400E4008B500F47810B0F5901F58D050
S113195021D8B0F5002F00F0838009D8B0F5003FFE
S113196044D0B0F5802F3BD0002840F0978077E03A
S1131970B0F5402F6DD0B0F5602F00F08280B0F547
S1131980202F40F08B80FEF745FC454BD3F81431F3
S1131990C3F3042331E0B0F5E01F41D011D8B0F512
S11319A0B01F3FD0B0F5D01F29D0B0F5A01F75D11E
S11319B03C48FFF783FF3A4BD3F8202102F00F0293
S11319C042E0B0F5281F21D003D8B0F5001F18D08D
S11319D064E0B0F5301F2ED0B0F5381F44D05DE080
S11319E0FEF718FC2E4BD3F80C3104E0FEF712FC82
S11319F02B4BD3F80831C3F30823013326E02948DD
S1131A0000E02948BDE80840FFF758BF2548FFF724
S1131A1055FF234BD3F82031C3F30113D84008BD3D
S1131A202248EFE72148FFF749FF1D4BD3F828214F
S1131A30C2F3011208E01D48FFF740FF184BD3F82A
S1131A402821C2F30122043201239340B0FBF3F0B6
S1131A5008BD1748FFF7D4FE072812D009281DD166
S1131A60BDE80840FEF7D6BB1248FFF7C9FE0728B9
S1131A7007D0082808D0042810D1BDE80840FEF794
S1131A80FFBB0D4B186808BDFEF7C4FB044BD3F82D
S1131A900031C3F3042303FB000008BD002008BD8C
S1131AA000400E4002001A000500200003001C0044
S1131AB006000C0098002E003000002010B5C0F382
S1131AC00313013B0C46072B00F2B780DFE803F059
S1131AD004131D2733537AA6FFF7B0FD5748FFF7C9
S1131AE0C1FD574BD3F8001121F4F85141EA042405
S1131AF0C3F800412FE0524BD3F8141121F4F851EC
S1131B0041EA0424C3F8144110BD4D4BD3F800112D
S1131B1021F0807141EA0464C3F8004110BD484BD0
S1131B20D3F80C1121F4FF3121F4807141EA04212E
S1131B30C3F80C1110BDFFF781FD4048FFF792FD7B
S1131B403F4BD3F8081121F4FF3121F4807141EAAD
S1131B500421C3F80811FEF781FB0446FFF7A4FD36
S1131B6001462046FFF7E6FC3648FFF7EBFEBDE8EA
S1131B701040FFF777BD344B984212D0334B984254
S1131B804CD10420FFF762FD2D4AD2F820310134F4
S1131B9023F03003B4FA84F4C4F11F0443EA0414B8
S1131BA00DE00420FFF752FD254AD2F8203101341C
S1131BB023F00F03B4FA84F4C4F11F041C43C2F8E5
S1131BC0204110BD224B984206D003F5B01303F513
S1131BD08053984210D010BD4020FFF737FD184ABB
S1131BE0D2F82831013423F03003B4FA84F4C4F178
S1131BF01F0443EA04140EE04020FFF727FD104AB7
S1131C00D2F82831013423F44073B4FA84F4C4F1D3
S1131C101B0443EA0424C2F8284110BD0D4B98422A
S1131C200BD14FF48020FFF711FD054BD3F8301191
S1131C3021F003010C43C3F8304110BD0148E80111
S1131C4000400E40002508006006140060162A00BB
S1131C5070171600800912000139FFF72FBF00002A
S1131C6070B50546FFF78EFC274B044611201E680D
S1131C701D60FFF7C5FD052801D1FFF7DFFC234BED
S1131C801B68002BFBD1224B9D420AD0214B9D4265
S1131C900CD0214B9D420BD124F0C06444F08064ED
S1131CA006E024F0C06444F0007401E024F0C06451
S1131CB01120FFF7A5FD052802D12846FFF7D2FC25
S1131CC0B54203D92846012100F01EFB134B112015
S1131CD01C61FFF795FD052808D1FEF7BFFA0446FD
S1131CE0FFF7E2FC01462046FFF724FC0C48FFF70F
S1131CF029FEFFF7B7FCB54205D800200121BDE855
S1131D00704000F001BB70BD0C0000206028C84387
S1131D1080841E0000093D0040420F0000400E4038
S1131D20002508000138032842D8DFE800F0022B20
S1131D30111EC1F308011F4B1B68002BFBD11E4A67
S1131D40136A23F4FF7323F00103194311627047EC
S1131D5001F07F01194B1B68002BFBD1164A136954
S1131D6023F07F0319431161704701F07F01144B85
S1131D701B68002BFBD1104A936923F07F0319439E
S1131D80916170470C4AD2F89030536A23F03003C3
S1131D9043F010035362106B0A4B03400B43C1F32F
S1131DA0C31103310F2928BF0F2143EA01711163C5
S1131DB0704700BF6828C84300400E406028C843ED
S1131DC06428C84300F8FF0F0F4B5A6A12F0300F13
S1131DD01A4606D0202907D0302902D009B10B4B6E
S1131DE004E04FF4400301E04FF40003D2F89010F4
S1131DF019409942FAD15B0243BF034BD3F8A000C8
S1131E00C0F380200120704700400E40FF33E107FB
S1131E1002280AD129B1064B4FF48060C3F8A80008
S1131E20596612B10220FFF7CFBF0120704700BFEF
S1131E3000400E40F8B5042873D8DFE800F008032A
S1131E400F2B6D00802640240623072526E04FF43F
S1131E5000764FF48074082309251FE0002950D030
S1131E6030494B6A13F0300F0BD12F4BDB6B4B6AAD
S1131E70DB070AD54B6A23F0300343F001034B62BE
S1131E8003E00424022303250AE004240223032597
S1131E90012606E00124022600232546002932D02B
S1131EA0002620490C662149194489000B68002B3F
S1131EB0FCD0002A35D01D4B2B449F003B68002BDF
S1131EC0FCD002282DD166B3164D696A11F00101C8
S1131ED004D020210122FFF79BFF01E0FFF774FFEC
S1131EE0D5F89C60022000210122FFF7A3FF022005
S1131EF0C6F30A01FFF716FF2C663B68002BFCD0E3
S1131F00F8BD08260223074A1666084A1A449200B6
S1131F101368002BFCD1F8BD2026102404230525CA
S1131F20BCE7F8BD00400E4000300E408004F210C3
S1131F3070B5112806460C4601D0002511E004298D
S1131F4004D1FEF79DF9054638B9F6E70529F4D121
S1131F50554B1D68554B9D42EFD92846002100F092
S1131F60D3F906F00F06013E072E00F29C80DFE84D
S1131F7006F00496409A98679A72023C032C00F289
S1131F809280DFE804F01102050B012003240DE028
S1131F904748FFF767FB0220044607E04448FFF781
S1131FA061FB0124032001E00020042401210A46EE
S1131FB0FFF740FFFFF742FB1DB13E4B1B68002BB0
S1131FC0FBD13D4B3D485C67FFF7BCFCFFF74AFB88
S1131FD0FEF744F90446FFF767FB01462046FFF786
S1131FE0A9FA002D5FD128460121BDE8704000F018
S1131FF08BB9334D013C092C55D8DFE804F01E079A
S11320000E54541554545405042317E001210020A0
S11320100A46FFF70FFF022310E0012001460246A3
S1132020FFF708FF012309E0FEF718F9FFF71AFB91
S1132030244B01221A60032300E000232B6070BDAF
S1132040072C02D0092C02D070BD002200E001222E
S1132050194B1A6770BD013C072C24D8DFE804F043
S11320601423230D2323060403220EE001210A4630
S11320700420FFF7DFFE012207E001210A460220C7
S1132080FFF7D8FE022200E000220B49D1F85C31B0
S113209023F0300343EA0213C1F85C3170BD0A4DEA
S11320A0A8E70A4DA6E770BD0C000020002D310101
S11320B00148E801C800C64300400E40002508005E
S11320C084400E400816C84380400E4088400E40AD
S11320D038B504461120FFF793FB022000210122AA
S11320E0FFF7A8FE1749227C4B6A23F00103022A5A
S11320F008BF43F001034B62134B22781A60637AE2
S1132100A28843EAC223CB620A6BA37A257A02F03F
S11321107F621A43E388E81C42EAC3220F2842EA9A
S1132120C51328BF0F2043EA00730B63A37B627BB4
S11321301B0143EA0233E27B1343227B43EA02435B
S11321404B6338BD00400E40A004C843EFF3108039
S113215072B6704700B962B670470000024B1B6844
S1132160002BFBD1704700BFC800C64338B5114BE4
S11321701C685D68C4F30124C5F30145FFF7EEFF55
S1132180AC4215D9022C13D11120FFF733FB0446BE
S11321901120FFF7D7FB084B6043984202D9074848
S11321A0FFF75EFD11200521BDE83840FFF7C0BEF2
S11321B038BD00BF00300E40002D3101C0EA2101BE
S11321C038B5164B164C1A781023C2F1020293400C
S11321D0144A1361144B45F60E02D3F88051C3F828
S11321E08021216840F255120A401A66FFF7B6FFB3
S11321F00E4B1978052905F0010502D01120FFF7CF
S113220097FE2368DB075EBF074B02221A661DB1E7
S1132210054B0022C3F8802138BD00BF1C0A0020F2
S1132220180A002000300E4000400E401D0A002015
S113223008B590B90C4BD3F890200C4B11201A60C0
S1132240FFF7DEFA0A4B1870FFF788FF094B0A4ABA
S11322505B68C3F30143137008BD012803D1BDE8D3
S11322600840FFF7ADBF08BD00400E40180A00202B
S11322701D0A002000300E401C0A002010B5044640
S113228010B10020FFF7D4FFFFF770FF074A13696E
S113229043F00403136130BF1CB1BDE81040FFF7E5
S11322A08FBFBDE81040FDF7D9BF00BF00ED00E0CF
S11322B0F8B5134B0446D3F800310F46FDF7AAFFD7
S11322C00646FFF74BFF0F4B5A68C2F30142A24286
S11322D01D4614D0022C03D130462146FFF7F2F9F3
S11322E0C4F10202102393402B611CB930462146ED
S11322F0FFF7E8F91FB1BDE8F840FFF72FBFF8BDBD
S113230000400E4000300E4038B50C4B0D46D3F85B
S1132310004128B9FDF77EFFC4F3042404FB000048
S1132320074B1B7823B1074B984201D8022000E0E9
S113233000202946BDE83840FFF7BABF00400E40F0
S1132340150A0020FF2C310170B5072A4FF00F0544
S113235001F003010DD89400174EA5403560174DC8
S1132360A04028600320A040A140154C20601548DF
S11323700EE0A2F10804A400134EA5403560134DED
S1132380A04028600320A040A140114C20601148C7
S113239001601149114489000B609DF81030C1F8A7
S11323A08030012393400D4AC2F824349DF8143040
S11323B0C1F8003370BD00BF00A4004400A400466F
S11323C008A4004408A4004604A4004404A400464D
S11323D00CA400440CA400468020851000A00040FA
S11323E0F0B542B1012430258C4045430BB1184E61
S11323F000E0184E74513024444304F1804407290A
S113240004F520440CD867684FEA810E0F2505FABD
S11324100EF527EA050602FA0EF5354365600CE071
S113242001F18045083DA768AD000F26AE4027EABC
S1132430060602FA05F53543A56042B901223024A7
S11324408A4044430BB1024B00E0024B1A51F0BDE9
S11324500CA000460CA000448B784A789B0143EA08
S113246082030A781343CA7843EA02130A7943EAD7
S1132470C2234A7943EA02338A79043043EA424365
S11324800001014A1350704700200440014B1860BA
S1132490704700BF00008442837842781B0143EAFE
S11324A0820302781343C27843EA4213027943EA6F
S11324B00223427943EA0233827943EAC233C2797E
S11324C043EA0243027A43EA4243014A13607047F3
S11324D00020044038B50546144619B90548FFF7ED
S11324E031FA014601396400B1FBF4F10902696172
S11324F038BD00BF4041050040F6AA63C36041F205
S11325000502002303604260104A83604361C36490
S1132510826443678367C3670D4B0E4A984209D0B0
S1132520904207D003F50063984203D003F580631B
S1132530984201D10023036500239042836502D0B1
S1132540054A904200D1C365704700BFF9FF0100FE
S11325500000014000040140000C014038B50C4665
S11325600546FFF7C9FF238AA27B296843F00103CC
S1132570002A9BB214BF4FF4806200220B43134322
S1132580227D2B602B68002A14BF4FF000520022DA
S113259013432B60A37C1BB1E37C43F08003AB6546
S11325A0237B6168A26843F480536B602846FFF77D
S11325B091FF637B0BB11023EB60E37D1B0503F4F8
S11325C0E002A37D1B0703F0E04313432B66637D06
S11325D01BB12B6843F480332B602378EB6038BD48
S11325E003695B06FCD54163704703695B06FCD550
S11325F0C163704710B5FDF75FFE00B1FEE7FEF75B
S113260047FC00B1FEE7084C2046FEF721FD00B16F
S1132610FEE76FF07F436060A36020460349BDE896
S11326201040FEF760BE00BF200A0020705A000070
S113263030B52DED028B9DB008EE100A00F0F0FAD3
S1132640194ACDE90001642103A801F051FD0524D4
S113265000251648FEF7AEFC1549144820222346EF
S11326608DE83000FEF702FE0F238DE828000F48A6
S113267003A920222346FEF7F9FDDFED0E7AB4EE1E
S1132680678AF1EE10FA08D141238DE82800074843
S1132690094920222346FEF7E9FDFEF731FC1DB06F
S11326A0BDEC028B30BD00BF08610000200A002091
S11326B00D6100000000C8C21761000070B588B049
S11326C02F4B03AA03F110061546186859681446DF
S11326D003C40833B3422246F7D11B882380294B15
S11326E0DB6C1B0E0AD1284928484AF6E8520A60D6
S11326F0026842F0040202600B6001E0012B04D185
S1132700234A136843F400531360224A224C136A89
S113271023F4441343F4881313622846FFF7D8FCC8
S113272011200421FFF704FC00210A460320FFF7CF
S113273081FB00F049F800F0D9F8FEF76BF8FFF7D9
S113274059FF2046FEF746F8002300932068134BF8
S11327504FF47A720121FEF7B1F8114B01221A707D
S11327601C46237843B10E4B00221A7000F06EF819
S113277000F0BCFCFFF75CFF0020FFF77FFDF0E7F3
S11327802E610000B081E00F90310E4098310E4070
S113279064310E4000400E40740A0020E12800001D
S11327A03400002008B5054A054B10681B6898479B
S11327B0044A13680133136008BD00BF4C0A0020AB
S11327C0540A0020500A002010B586B000241C488A
S11327D00121FEF779FF0C2221461F2303A88DF85F
S11327E004408DF805408DF806308DF807408DF8CB
S11327F008408DF8094000F0DCFFFF2320468DF8E7
S11328001130FEF781FE21468DF806000D480E4C6E
S1132810FEF72EFE01A98DF807002046FEF746FEBE
S113282003238DF80E3004238DF80D3020466223E7
S113283003A98DF81030FEF7C3FD06B010BD00BF2C
S113284000D20400801A06000020004010B54FF4A6
S1132850FA714FF4806200200F4B01249C60DC6805
S1132860E403FCD50C4B9B6CB3F5806F06DA834212
S113287003D89A4228BF1A4600E018460139EBD122
S1132880801A00F0ABF90022044B00F01DFA00227C
S1132890034B00F019FA10BD002000400000144062
S11328A00000503F30B585B00A4B18600A4B002435
S11328B003A815461960FDF78DFF00940398074B94
S11328C001214FF47A72B2FBF5F2FDF7F7FF2046CF
S11328D005B030BD540A00204C0A0020A527000092
S11328E0014B01221A7070473400002007B50E48CE
S11328F00121FEF7E9FE0122134603200821FFF718
S11329006FFD002300930821012301930A4603204D
S1132910FFF71AFD054B4FF48062C3F880211A605B
S113292003B05DF804FB00BF0035080000E100E0DF
S1132930074BD3F81C04C3F82404C30507D507EEDA
S1132940900AF8EE677A17EE900AFFF771BE7047A7
S113295000A00040FFF7ECBF81F0004102E000BF9F
S113296083F0004330B54FEA41044FEA430594EA4B
S1132970050F08BF90EA020F1FBF54EA000C55EA86
S1132980020C7FEA645C7FEA655C00F0E2804FEA57
S11329905454D4EB5555B8BF6D420CDD2C4480EA39
S11329A0020281EA030382EA000083EA010180EA69
S11329B0020281EA0303362D88BF30BD11F0004FB7
S11329C04FEA01314FF4801C4CEA113102D04042ED
S11329D061EB410113F0004F4FEA03334CEA133328
S11329E002D0524263EB430394EA050F00F0A78040
S11329F0A4F10104D5F1200E0DDB02FA0EFC22FA3B
S1132A0005F2801841F1000103FA0EF2801843FA2E
S1132A1005F359410EE0A5F120050EF1200E012A1F
S1132A2003FA0EFC28BF4CF0020C43FA05F3C0185D
S1132A3051EBE37101F0004507D54FF0000EDCF1D6
S1132A40000C7EEB00006EEB0101B1F5801F1BD37F
S1132A50B1F5001F0CD349085FEA30004FEA3C0C83
S1132A6004F101044FEA445212F5800F80F09A8079
S1132A70BCF1004F08BF5FEA500C50F1000041EB7D
S1132A80045141EA050130BD5FEA4C0C404141EB81
S1132A90010111F4801FA4F10104E9D191F0000FA8
S1132AA004BF01460020B1FA81F308BF2033A3F12B
S1132AB00B03B3F120020CDA0C3208DD02F1140C22
S1132AC0C2F10C0201FA0CF021FA02F10CE002F15D
S1132AD01402D8BFC2F1200C01FA02F120FA0CFC56
S1132AE0DCBF41EA0C019040E41AA2BF01EB04519F
S1132AF0294330BD6FEA04041F3C1CDA0C340EDC9D
S1132B0004F11404C4F1200220FA04F001FA02F3DF
S1132B1040EA030021FA04F345EA030130BDC4F19D
S1132B200C04C4F1200220FA02F001FA04F340EA92
S1132B300300294630BD21FA04F0294630BD94F043
S1132B40000F83F4801306BF81F480110134013D2A
S1132B504EE77FEA645C18BF7FEA655C29D094EA9B
S1132B60050F08BF90EA020F05D054EA000C04BF19
S1132B701946104630BD91EA030F1EBF0021002004
S1132B8030BD5FEA545C05D14000494128BF41F0A3
S1132B90004130BD14F580043CBF01F5801130BD07
S1132BA001F0004545F0FE4141F470014FF0000092
S1132BB030BD7FEA645C1ABF194610467FEA655C43
S1132BC01CBF0B46024650EA013406BF52EA0335E5
S1132BD091EA030F41F4002130BD00BF90F0000FD3
S1132BE004BF0021704730B54FF4806404F132040F
S1132BF04FF000054FF0000150E700BF90F0000FC8
S1132C0004BF0021704730B54FF4806404F13204EE
S1132C1010F0004548BF40424FF000013EE700BFBE
S1132C2042004FEAE2014FEA31014FEA02701FBF4E
S1132C3012F07F4393F07F4F81F06051704792F020
S1132C40000F14BF93F07F4F704730B54FF460749A
S1132C5001F0004521F0004120E700BF50EA0102E5
S1132C6008BF704730B54FF000050AE050EA010292
S1132C7008BF704730B511F0004502D5404261EB02
S1132C8041014FF4806404F132045FEA915C3FF443
S1132C90DCAE4FF003025FEADC0C18BF03325FEADC
S1132CA0DC0C18BF033202EBDC02C2F1200300FA91
S1132CB003FC20FA02F001FA03FE40EA0E0021FAB6
S1132CC002F11444C1E600BF70B54FF0FF0C4CF4A0
S1132CD0E06C1CEA11541DBF1CEA135594EA0C0F56
S1132CE095EA0C0F00F0DEF82C4481EA030621EA91
S1132CF04C5123EA4C5350EA013518BF52EA0335CC
S1132D0041F4801143F4801338D0A0FB02CE4FF07D
S1132D100005E1FB02E506F00042E0FB03E54FF0AD
S1132D200006E1FB03569CF0000F18BF4EF0010EA5
S1132D30A4F1FF04B6F5007F64F5407404D25FEAA1
S1132D404E0E6D4146EB060642EAC62141EA555154
S1132D504FEAC52040EA5E504FEACE2EB4F1FD0C96
S1132D6088BFBCF5E06F1ED8BEF1004F08BF5FEA14
S1132D70500E50F1000041EB045170BD06F00046C6
S1132D8046EA010140EA020081EA0301B4EB5C0473
S1132D90C2BFD4EB0C0541EA045170BD41F480116B
S1132DA04FF0000E013C00F3AB8014F1360FDEBF90
S1132DB0002001F0004170BDC4F10004203C35DA6C
S1132DC00C341BDC04F11404C4F1200500FA05F3EF
S1132DD020FA04F001FA05F240EA020001F0004290
S1132DE021F0004110EBD37021FA04F642EB060106
S1132DF05EEA430E08BF20EAD37070BDC4F10C0430
S1132E00C4F1200500FA04F320FA05F001FA04F2F3
S1132E1040EA020001F0004110EBD37041F10001DF
S1132E205EEA430E08BF20EAD37070BDC4F12005EA
S1132E3000FA05F24EEA020E20FA04F301FA05F252
S1132E4043EA020321FA04F001F0004121FA04F2FA
S1132E5020EA020000EBD3705EEA430E08BF20EACA
S1132E60D37070BD94F0000F0FD101F00046400004
S1132E7041EB010111F4801F08BF013CF7D041EA86
S1132E80060195F0000F18BF704703F0004652008A
S1132E9043EB030313F4801F08BF013DF7D043EA5B
S1132EA00603704794EA0C0F0CEA135518BF95EA11
S1132EB00C0F0CD050EA410618BF52EA4306D1D198
S1132EC081EA030101F000414FF0000070BD50EAB7
S1132ED0410606BF1046194652EA430619D094EA41
S1132EE00C0F02D150EA013613D195EA0C0F05D12B
S1132EF052EA03361CBF104619460AD181EA03017F
S1132F0001F0004141F0FE4141F470014FF0000036
S1132F1070BD41F0FE4141F4780170BD70B54FF0D1
S1132F20FF0C4CF4E06C1CEA11541DBF1CEA135551
S1132F3094EA0C0F95EA0C0F00F0A7F8A4EB050433
S1132F4081EA030E52EA03354FEA013100F088802A
S1132F504FEA03334FF0805545EA131343EA1263F3
S1132F604FEA022245EA111545EA10654FEA0026A8
S1132F700EF000419D4208BF964244F1FD0404F561
S1132F80407402D25B084FEA3202B61A65EB0305BD
S1132F905B084FEA32024FF480104FF4002CB6EB7A
S1132FA0020E75EB030E22BFB61A754640EA0C00FA
S1132FB05B084FEA3202B6EB020E75EB030E22BF3A
S1132FC0B61A754640EA5C005B084FEA3202B6EB7B
S1132FD0020E75EB030E22BFB61A754640EA9C003A
S1132FE05B084FEA3202B6EB020E75EB030E22BF0A
S1132FF0B61A754640EADC0055EA060E18D04FEAC8
S1133000051545EA16754FEA06164FEAC30343EA67
S113301052734FEAC2025FEA1C1CC0D111F4801F34
S11330200BD141EA00014FF000004FF0004CB6E72D
S113303011F4801F04BF01430020B4F1FD0C88BFCC
S1133040BCF5E06F3FF6AFAEB5EB030C04BFB6EBD7
S1133050020C5FEA500C50F1000041EB045170BDCA
S11330600EF0004E4EEA113114EB5C04C2BFD4EBF7
S11330700C0541EA045170BD41F480114FF0000E7B
S1133080013C90E645EA060E8DE60CEA135594EAF7
S11330900C0F08BF95EA0C0F3FF43BAF94EA0C0FFA
S11330A00AD150EA01347FF434AF95EA0C0F7FF46F
S11330B025AF104619462CE795EA0C0F06D152EAC3
S11330C003353FF4FDAE1046194622E750EA4106A7
S11330D018BF52EA43067FF4C5AE50EA41047FF4B8
S11330E00DAF52EA43057FF4EBAE12E74FEA41021B
S11330F0B2F1E04324BFB3F5001CDCF1FE5C0DD952
S113310001F0004C4FEAC0024CEA5070B2F1004F9B
S113311040EB830008BF20F00100704711F0804F9E
S113312021D113F13872BCBF01F00040704741F463
S113313080114FEA5252C2F11802C2F1200C10FA67
S11331400CF320FA02F018BF40F001004FEAC1234B
S11331504FEAD32303FA0CFC40EA0C0023FA02F3EF
S11331604FEA4303CCE77FEA625307D150EA0133C5
S11331701EBF4FF0FE4040F44000704701F0004095
S113318040F0FE4040F40000704700BF53B94AB914
S1133190002908BF00281CBF4FF0FF314FF0FF305B
S11331A000F03CB882B0EC462DE9005000F01EF867
S11331B0DDF804E002B00CBC704700BF2DE9F0411B
S11331C0069C154606460F46984600F029F805FB6E
S11331D001F300FB0838A5FB0023B21A434467EB54
S11331E00303C4E90023BDE8F08100BF2DE9F041E9
S11331F0069C904606460F461D4600F05FF900FB0C
S113320005F5A0FB082308FB0155B21A2B4467EB14
S11332100303C4E90023BDE8F08100BF704700BF89
S113322000292DE9F043C0F2A6800026002BC0F24D
S11332309C80884694469E46154604460F46002BBD
S11332403DD18A4259D9B2FA82F33BB1C3F120028B
S11332509F4020FA02F29D4017439C40290C220C07
S1133260B7FBF1FEA8B201FB1E7742EA074700FB59
S11332700EF3BB420AD97F190EF1FF3280F00581AB
S1133280BB4240F20281AEF1020E2F44FF1AA4B2F7
S1133290B7FBF1F301FB137744EA074700FB03F0A4
S11332A0B84208D97F1903F1FF3280F0F080B842A8
S11332B040F2ED80023B43EA0E43002203E08B42DE
S11332C00FD900221346341C18BF012460424FF06A
S11332D0000565EB45015840514000196941BDE8BE
S11332E0F083B3FA83F2002A40F086808B4202D343
S11332F0844500F2DB800123E5E712B90123B3FB27
S1133300F2F5B5FA85F000283BD1781B4FEA154E4B
S11333101FFA85FC0122B0FBFEF8210C0EFB1807F6
S113332041EA07470CFB08F3BB4207D97F1908F1B0
S1133330FF3102D2BB4200F2BD808846FF1AA4B21C
S1133340B7FBFEF30EFB137744EA07470CFB03FCC1
S1133350BC4507D97F1903F1FF3102D2BC4500F205
S1133360A7800B4643EA0843ADE752426FEA0606DC
S113337063EB43035DE7404261EB41014FF0FF36ED
S113338054E7C0F1200224FA02F107FA00F3854061
S11333904FEA154ED7401943B7FBFEF20B0C0EFB58
S11333A012771FFA85FC43EA07430CFB02F79F429E
S11333B004FA00F407D95B1902F1FF3074D29F427A
S11333C072D9023A2B44DF1B89B2B7FBFEF80EFB1D
S11333D0187341EA03430CFB08F79F4208D95B19B1
S11333E008F1FF315CD29F425AD9A8F102082B445C
S11333F0D81B48EA02428EE7C2F120032CFA03F1FB
S11334000EFA02FE20FA03F741EA0E0E08FA02F061
S113341028FA03F14FEA1E453843B1FBF5F8030CD3
S113342005FB18111FFA8EF743EA014107FB08F365
S11334308B420CFA02FC09D911EB0E0108F1FF3999
S113344030D28B422ED9A8F102087144C91A80B235
S1133450B1FBF5F305FB131140EA014107FB03F748
S11334608F4208D911EB0E0103F1FF3016D28F42BF
S113347014D9023B714443EA0843C91BA3FB0C89DA
S1133480494509D305D000221DE79646FEE61346BA
S113349011E794404445F6D2013BF4E70346EAE7DA
S11334A08846A5E7C846D1E702468CE713460AE7F3
S11334B0023B57E7A8F102082F443FE72DE9F0410A
S11334C0002B44D18A42154604464FD9B2FA82F7FA
S11334D00E464FB1C7F12003B94020FA03F602FAB1
S11334E007F50E4300FA07F44FEA154E230CB6FB1A
S11334F0FEF0AFB20EFB106143EA014307FB00F19B
S1133500994209D95B1900F1FF3280F0EC809942AD
S113351040F2E98002382B445A1AA4B2B2FBFEF3FB
S11335200EFB132244EA024207FB03F7974208D931
S1133530521903F1FF3180F0D880974240F2D580D0
S1133540023B43EA004000263146BDE8F0818B424D
S113355047D8B3FA83F6002E48D18B4202D3824275
S113356000F2CD8001203146BDE8F08112B9012579
S1133570B5FBF2F5B5FA85F8B8F1000F77D14A1B1F
S11335804FEA154EAFB20126B2FBFEF0230C0EFB40
S1133590102143EA014107FB00F38B4207D9491983
S11335A000F1FF3202D28B4200F2BA801046C91AEF
S11335B0A4B2B1FBFEF30EFB131144EA014407FB72
S11335C003F7A74208D9641903F1FF3280F08F8012
S11335D0A74240F28C80023B43EA00403146BDE8FA
S11335E0F081002630463146BDE8F081C6F1200462
S11335F022FA04F5B3402B4320FA04FC01FA06F73F
S113360021FA04F54FEA134E4CEA0707B5FBFEF81E
S1133610390C0EFB18551FFA83FC41EA05450CFBD7
S113362008F1A94202FA06F204D9ED1808F1FF34B0
S113363067D3A0466D1ABFB2B5FBFEF40EFB14555A
S113364047EA05410CFB04FC8C4504D9C91804F174
S1133650FF355CD32C4644EA0844CCEB0101A4FBBF
S11336600223994248D344D0204600266CE7C8F18F
S1133670200401FA08F305FA08F520FA04F7E140FA
S11336804FEA154E1F43B1FBFEF63A0C0EFB161122
S11336901FFA85FC42EA01430CFB06F29A4200FA47
S11336A008F407D95B1906F1FF3137D29A4235D9AC
S11336B0023E2B449B1ABFB2B3FBFEF00EFB103349
S11336C047EA03430CFB00F1994207D95B1900F167
S11336D0FF3221D299421FD902382B445A1A40EAA8
S11336E00646674650E7104616E70B4629E7134699
S11336F072E7B0409042B7D2601E002624E73046FD
S113370022E7A94295D9A8F102081D4492E78C4505
S1133710A0D9023C19449EE71046DFE70E46C9E7EC
S11337200238294443E700BF08B5074B044613B1E8
S11337300021AFF30080054B1868836A03B19847F2
S1133740204602F0B9F800BF000000004461000008
S113375070B50E4B0E4CE41AA41000251E46A5426B
S113376004D056F8253098470135F8E702F056F9A9
S1133770084C094BE41AA41000251E46A54204D0A7
S113378056F8253098470135F8E770BDD40000207D
S1133790D4000020D8000020D400002010B5431E1F
S11337A00A44914204D011F8014B03F8014FF8E7A1
S11337B010BD02440346934202D003F8011BFAE70A
S11337C070472DE9F04788B0002B149F1299109E82
S11337D0DDF84CA01D46B8BF05F1004327F02007D3
S11337E0B6BF1D4600232D231446B8BF1446462FEA
S11337F00B7003D0452F03D1013601E0032300E011
S113380002238DE8480406AB039307AB04932246D6
S11338102B4600F035FD472F804602D1119BDB0774
S113382026D5462F08EB060911D198F80030302B25
S11338300AD1204629460022002302F095F818B93F
S1133840C6F10106CAF80060DAF80030994420464F
S113385029460022002302F087F808B1CDF81C9015
S1133860079B4B4504D25A1C079230221A70F7E783
S1133870079B159AC8EB03034046136008B0BDE8E4
S1133880F08773B503460029B8BF494203F8022BF9
S1133890B4BF2D222B220929427019DD0DF1070432
S11338A026460A2291FBF2F502FB15113031092D4F
S11338B004F8011D2946F4DC3031651E04F8011CAE
S11338C0B5421A460AD215F8012B03F8012BF7E783
S11338D030241A46214402F8024B5970101A02B0DF
S11338E070BD00002DE9F04F91B08B4615461E4681
S11338F01A9F044601F088FAD0F800A0504600F060
S113390029FC00230E933B680990073323F0070337
S113391003F108029BF818803A60D3E90023CBE94D
S11339201223DBE9120100F0B9FB0128DBE91201E3
S113393019D10022002302F021F810B12D238BF8B5
S11339404330A04BA04FB8F1470F88BF1F46032355
S1133950CBF81030DBF8003023F00403CBF8003050
S11339604FF00009A1E000F099FBDBF8003048B902
S1133970964A974FB8F1470F88BF17460322CBF8F2
S11339801020E9E7DBF804209BED127B571C8DED3A
S11339900A7B01D1062209E0B8F1670F02D0B8F121
S11339A0470F05D1002A40F0C7810122CBF804203B
S11339B0DBF80420CDF8108043F480638DE80C001C
S11339C0CBF800300DF1330302930DAB03930EAB30
S11339D00593002306932046DDE90A23FFF7F1FE51
S11339E008F0DF03472B07460AD10D9BD81C03DBE5
S11339F0DBF80420934237DDA8F102085FFA88F867
S1133A00B8F1650F0D9915D8013942460BF15000F4
S1133A100D91FFF736FF0E9A8318012A8146CBF8E1
S1133A20103003DCDBF80020D10738D50133CBF8A4
S1133A30103034E0B8F1660F18D10029DBF80430F7
S1133A4009DDCBF810101BB9DBF80020D20721D513
S1133A5001330B441CE01BB9DBF80020D00701D56F
S1133A60023315E0012313E04FF067080D9B0E9A13
S1133A70934207DBDBF80020CBF81030D10709D5DF
S1133A80013305E0002BD4BFC3F102030123134427
S1133A90CBF810300D9BCBF858304FF000099DF84F
S1133AA0333013B12D238BF843300096204659460A
S1133AB00FAA2B4600F05CF9013002D14FF0FF3021
S1133AC052E1DBF800305A0505D4204629463A462F
S1133AD0DBF8103008E1B8F1650F40F2D080DBE983
S1133AE012010022002301F03FFF50B32046294673
S1133AF0384A0123B0470130E0D00E9B0D9A9A4218
S1133B0009DBDBF80030D80705D4DBF800309F0769
S1133B1000F1108107E1204629465246099BB0472F
S1133B200130CBD000270E9B013B9F42EDDA2046AB
S1133B3029460BF11A020123B0470130BED00137E8
S1133B40F1E70D9B002B29DC20462946214A01235D
S1133B50B0470130B2D00D9B2BB90E9B1BB9DBF8DB
S1133B600030D907D1D5204629465246099BB04793
S1133B700130A3D04FF000080D9B5B4298452046CE
S1133B80294608DA0BF11A020123B047013095D017
S1133B9008F10108F0E73A460E9BA5E0DBF858204F
S1133BA00E9B9A42A8BF1A46002A914602DC4FF0A7
S1133BB000081CE0204629463A464B46B0470130EF
S1133BC0F5D17BE74C6100004861000054610000BE
S1133BD05061000058610000204629460BF11A028A
S1133BE00123B04701303FF469AF08F10108DBF865
S1133BF05830B9F1000FACBFC9EB03021A46904527
S1133C00EADB07EB03080D9A0E9B9A4210DBDBF804
S1133C100030DA070CD40E9A1744C8EB07030D9F43
S1133C20D21B9342A8BF1346002B1F4608DC0EE0AC
S1133C30204629465246099BB0470130EBD13DE767
S1133C40204629464246B04701303FF437AF4FF093
S1133C5000080AE0204629460BF11A020123B04766
S1133C6001303FF42BAF08F101080D9A0E9B002F91
S1133C70A3EB0203A8BFDB1B9845EBDB45E70E9AD9
S1133C80012A01DCDB0736D5204629463A460123C2
S1133C90B04701303FF412AF204629465246099BF3
S1133CA0B04701303FF40AAFDBE9120100220023E0
S1133CB001F05AFEE8B90E9B204629467A1C013BC6
S1133CC01DE0204629460BF11A020123B0470130BA
S1133CD03FF4F4AE01370E9B013B9F42F1DB2046DB
S1133CE029460BF150024B46B04701307FF40DAF2B
S1133CF0E4E60027EFE7204629463A460123B04789
S1133D000130ECD1DAE6204629460BF119020123F1
S1133D10B04701303FF4D2AE0137DBF80C300F9AD4
S1133D209B1A9F42EFDBDBF80C000F9B9842B8BF55
S1133D30184619E00027F0E743F480638DE80C008F
S1133D40CBF800300DF1330302930DAB03930EABAC
S1133D50059300230693CDF810802046DDE90A235D
S1133D60FFF72FFD074640E611B0BDE8F08F00BF16
S1133D702DE9F84391461F468A680B69DDF82080D7
S1133D809342B8BF1346C9F8003091F84320064661
S1133D900C4612B10133C9F800302368990642BFBA
S1133DA0D9F800300233C9F80030256815F006054B
S1133DB01CD094F843302268003318BF01239206C4
S1133DC01FD5E1185A1C302081F84300224494F88E
S1133DD0451082F84310023313E03046394604F1AB
S1133DE019020123C047013007D00135E368D9F82F
S1133DF000209B1A9D42F0DBDBE74FF0FF30BDE86B
S1133E00F8833046394604F14302C0470130F4D008
S1133E102268D9F80050E36802F00602042A08BFB9
S1133E205D1B2269A3680CBF25EAE5750025934252
S1133E30C4BF9B1AED184FF00009A9450ADA3046B1
S1133E40394604F11A020123C0470130D5D009F1E3
S1133E500109F2E70020BDE8F88300002DE9FF41E5
S1133E600C461746227E6E2A984606460A9B01F1A6
S1133E70430100F0AF8012D8632A23D00AD8002A65
S1133E8000F0BC80582A40F0CB8084F84520DFF84D
S1133E9004E257E0642A1ED0692A1CD0C0E0732AC9
S1133EA000F0B08009D86F2A2ED0702A40F0B88074
S1133EB0226842F0200222603FE0752A24D0782A4A
S1133EC03BD0ADE01A68111D1960136884F84230C4
S1133ED004F14205A8E020681A6810F0800F02D0AF
S1133EE0101D186008E010F0400F02F10400186083
S1133EF002D0B2F9003000E01368002B3EDA2D2224
S1133F005B4284F8432039E020681A6810F0800F7F
S1133F1002D0101D186007E010F0400F02F10400F9
S1133F20186001D0138800E01368227EDFF864E192
S1133F306F2A0CBF08220A221CE07822DFF858E11D
S1133F4084F845202268186812F0800F00F10405F7
S1133F501D6003D1550601D5038800E00368D0072E
S1133F6044BF42F0200222601BB9226822F02002E2
S1133F7022601022002084F8430002E0DFF814E1FC
S1133F800A226568A560002DA2BF206820F0040005
S1133F90206003B965B10D46B3FBF2F002FB1033A8
S1133FA01EF8033005F8013D03460028F4D100E073
S1133FB00D46082A0BD12368DA0708D523696268FD
S1133FC09A42DEBF302305F8013C05F1FF35491B59
S1133FD021612EE025681A68606915F0800F03D00E
S1133FE0151D1D60136808E015F0400F02F104056B
S1133FF01D60136801D0188000E01860002323615D
S11340000D4616E01A68111D196015686268284685
S1134010002100F005FF08B1401B6060636804E004
S113402004F1420584F8422001232361002384F82B
S11340304330CDF800803046214603AA3B46FFF7C3
S113404097FE013002D14FF0FF301FE03046394671
S11340502A462369C0470130F5D023689B0705D45D
S1134060E068039B9842B8BF18460FE00025E36858
S1134070039A9B1A9D42F3DA3046394604F1190239
S11340800123C0470130DED00135F0E704B0BDE8BC
S1134090F08100BF5A6100006B6100000A4631F0F4
S11340A0004110B503461BD00F48A2F5801484428A
S11340B010D902F1FF420C4802F5E002824209D90C
S11340C0B1F5801F08D3094A914207D1B3FA83F0AE
S11340D0400910BD042010BD032010BD002010BDF8
S11340E00028E6D1022010BDFFFFDF7F0000F07F33
S11340F00CB430B5164B0C1E9DB01D6804DA8B232E
S11341002B604FF0FF301EE04FF40273ADF8143013
S113411014BF04F1FF332346049307934FF6FF7350
S113412002900690ADF81630284621AB02A9209AD9
S1134130019301F065FA431CBCBF8B232B6014B1BF
S1134140029B00221A701DB0BDE8304002B07047D7
S113415098000020034613F8012B002AFBD1181AFB
S1134160013870472DE9F74F03690C69A342804673
S1134170C0F28180013C01F114074FEA840E00F182
S1134180140657F8245006EB0E030193013556F834
S11341902430B3FBF5F507EB0E09C5B34FF0000A65
S11341A03846B446D34650F8043B9AB21B0C02FB83
S11341B005A26B4303EB124392B2C2EB0B02BCF8B1
S11341C000B04FEA134A12FA8BF21FFA83FBDCF8B1
S11341D00030CBEB134303EB224392B242EA034297
S11341E048454FEA234B4CF8042BDCD956F80E30E3
S11341F06BB9019B043BB3421A4602D8C8F810407D
S113420005E01268043B002AF8D1013CF3E740467C
S113421001F027F800282CDB013530464FF0000E62
S113422057F8041BD0F800C08AB2C2EB0E03090C85
S113423013FA8CF3C1EB1C4202EB23429BB243EA18
S113424002434F454FEA224E40F8043BE8D956F862
S1134250242006EB840362B9043BB3421A4602D815
S1134260C8F8104005E01268043B002AF8D1013C6C
S1134270F3E7284600E0002003B0BDE8F08F00001B
S11342802DE9F04F456A97B08246239CCDE902237D
S113429045B9102000F0BCFDCAF8240045608560D3
S11342A00560C560DAF82430196859B15A684A6063
S11342B0012393408B60504600F0F6FDDAF8243079
S11342C000221A60039BA24A002BBFBF0123236074
S11342D0039B23F00043B8BF0393039FA4BF0023B1
S11342E0236027F000431B0D1B0593421DD1229A26
S11342F042F20F731360029B43B9964A964BC7F37D
S11343001300002814BF1846104600E09248249B6E
S1134310002B00F07385C37813B100F1080300E0AB
S1134320C31C249A136000F069BDDDE90245002234
S113433020462946002301F017FB804658B1229AF3
S113434001231360249B002B00F0468583481860EA
S1134350013800F053BD15AB009314AB01935046E4
S113436022462B4600F0F8FFC7F30A5607905EB1C9
S1134370C5F3130343F07F51204641F44011A6F2E4
S1134380FF36CDF84C801DE0159B149E1E446FF43F
S113439082639E42ADBF029A714B029A06F21243A7
S11343A0A3BF22FA03F06F4B9B1B9B1BAABF9F402A
S11343B002FA03F03843FEF711FC0123A1F1F8716E
S11343C0013E13930022684BFEF7CAFA5AA3D3E9BD
S11343D00023FEF779FC5AA3D3E90023FEF7C2FABF
S11343E0044630460D46FEF709FC57A3D3E90023E3
S11343F0FEF76AFC02460B4620462946FEF7B2FA4F
S113440004460D4601F0E2FA29468346002220467E
S1134410002301F0B3FA58B15846FEF7EFFB024609
S11344200B462046294601F09FFA08B90BF1FF3BE1
S1134430BBF1160F0DD84D4B03EBCB03D3E90001B1
S1134440DDE9022301F0B8FA30B10BF1FF3B0023A0
S113445000E00123129300E01290149B9E1B731E34
S11344600A9345BF5B420993002300234CBF0A9380
S11344700993BBF1000F07DB0A9BCDF834B05B4412
S11344800A9300230B9308E0099BCBEB03030993E6
S1134490CBF100030B9300230D93209B092B28D809
S11344A0052BC4BF043B2093209BA3F10203CCBF84
S11344B000250125032B21D8DFE803F0020E0410A8
S11344C0002300E001230C93219B002B20DC01231B
S11344D0069305931A4619E0002300E001230C9388
S11344E0219B5B4406930133012B0593B8BF012341
S11344F011E00125002320930C9501E001230C9386
S11345004FF0FF330693059300221223219202E019
S1134510219B06930593DAF824400022626004216B
S113452001F114029A4223D86268013262604900A0
S1134530F6E700BFAFF3008061436F63A787D23F04
S1134540B3C8608B288AC63FFB799F501344D33F7E
S11345500000F07F7C61000085610000596100006B
S1134560EEFBFFFF0EFCFFFF0000F83F9061000030
S11345705046616800F063FCDAF8243020601B6860
S11345800893059B0E2B00F24B81002D00F048810F
S11345909DED027BBBF1000F8DED107B31DDB34A45
S11345A00BF00F034FEA2B1702EBC303F806D3E912
S11345B000450CD5AE4B51EC170BD3E90823FEF79D
S11345C0ADFC07F00F07CDE90201032600E0022647
S11345D0DFF89C8277B1F90708D520462946D8E947
S11345E00023FEF771FB013604460D467F1008F1E7
S11345F00808EFE7DDE9020122462B46FEF78EFCB0
S11346001BE0CBF10004DCB1984B994D04F00F0290
S113461003EBC203DDE91001D3E90023FEF754FBE9
S1134620241102264CB1E20704D5D5E90023013652
S1134630FEF74AFB64100835F4E7CDE9020100E017
S11346400226129BDBB1DDE9024500222046294601
S1134650884B01F093F990B1059B83B1069B002B25
S113466040F3DA80294620460022834BFEF72CFBD8
S11346700BF1FF37CDE902010136069D01E0059DEE
S11346805F469DED027B30468DED0E7BFEF7B6FA5C
S1134690DDE90E23FEF718FB0022784BFEF762F9E2
S11346A08046A1F15079CDB90022754BDDE90E01A8
S11346B0FEF756F942464B46CDE9020101F07CF97A
S11346C0002840F04682424609F10043DDE9020138
S11346D001F054F9002840F036829DE0634B0C99B8
S11346E06A1E03EBC203002949D0D3E9002300204A
S11346F06449FEF713FC42464B46FEF731F9DDE907
S11347000E89CDE90201089C4946404601F05EF954
S11347100646FEF773FA02460B4640464946FEF744
S11347201FF9303604F8016BDDE90223804689461F
S113473001F024F9002840F0408342464B46002013
S11347404C49FEF70DF9DDE9022301F017F90028C1
S113475040F0D380089BE31AAB425DDADDE9020145
S11347600022454BFEF7B0FA0022CDE90201424B8C
S113477040464946FEF7A8FA80468946C4E7D3E98D
S1134780000142464B46FEF79FFA089BCDE9020121
S1134790DDE90E895C191D464946404601F016F9CB
S11347A00646FEF72BFA303602460B46404649468B
S11347B0FEF7D6F805F8016BA5428046894624D158
S11347C00022304BDDE90201FEF7CCF802460B462D
S11347D04046494601F0F0F8002840F08E80DDE9BB
S11347E0022300202749FEF7BBF802460B46404649
S11347F0494601F0C3F878B114F8013C302B04F1B8
S1134800FF3240F0DA821446F6E700221A4BFEF734
S11348105BFA80468946BFE7DDE91023CDE9022330
S1134820159B002BC0F28B80BBF10E0F00F3878029
S11348300E4B03EBCB03D3E90067219B002B23DA58
S1134840059B002B20DC40F07D81304600220C4B80
S11348503946FEF739FADDE9022301F0A3F8059D94
S11348602E46002840F0708175E100BF9061000081
S1134870586200000000F03F0000244000001C408B
S1134880000014400000E03FDDE90289089C324644
S11348903B4640464946FEF741FB01F097F8054682
S11348A0FEF7ACF932463B46FEF70EFA0B460246DB
S11348B049464046FEF754F805F1300E089B04F8CB
S11348C001EBC3EB040E059B9E452BD102460B4620
S11348D0FEF748F832463B468046894601F06CF8BC
S11348E070B94046494632463B4601F03DF800283F
S11348F000F06482EB0703D460E2BB4600E01C4690
S113490014F8012C392A04F1FF3307D1089A934291
S1134910F5D1302313700BF1010B13461A780132D1
S11349201A704BE20022A44BFEF7CEF900220023BA
S11349308046894601F018F80028A8D03EE20C9A77
S1134940002A32D0209A012A0ADC139A12B103F207
S1134950334302E0149BC3F136030B9D099C18E01A
S1134960059B5D1E0B9BAB42BFBF0B9B0B95EA1ACD
S11349700D9BB6BF9B185D1B0D93059BB8BF00250F
S1134980002BB9BF099B059A099C059BBCBF9C1AC7
S11349900023099A1A4409920A9A50461A4401219A
S11349A00A9200F023FB064602E00B9D099C0C9E34
S11349B064B10A9B002B09DDA342099AA8BF2346D0
S11349C0D21A09920A9AE41AD31A0A930B9B002B5F
S11349D020DD0C9BC3B1002D10DD31462A46504624
S11349E000F09EFB06463146079A504600F007FB4E
S11349F007990746504600F057FA07970B9B5A1B36
S1134A0008D05046079902E007990B9A504600F0E7
S1134A1087FB07905046012100F0E8FA0D9B002B1C
S1134A2005460ADD29461A46504600F079FB209BCC
S1134A30012B054604DD00271BE0209B012B13DC22
S1134A40029B8BB9039BC3F313037BB9039B23F032
S1134A5000473F0D3F0557B1099B013309930A9B5A
S1134A6001330A93012702E0002700E0029F0D9B17
S1134A7043B12B6905EB8303186900F06AFAC0F1AE
S1134A80200000E001200A9B184410F01F0008D009
S1134A90C0F12003042B02DDC0F11C0002E008D0A9
S1134AA018461C30099B034409930A9B034404449D
S1134AB00A93099B002B05DD504607991A4600F01E
S1134AC07DFB07900A9B002B05DD294650461A46BC
S1134AD000F074FB0546129BEBB10798294600F0E1
S1134AE0C0FB002817DA0023504607990A2200F079
S1134AF0F2F90C9B07900BF1FF3B002B00F0708147
S1134B003146002350460A2200F0E5F9069B002BAB
S1134B10064633DC6DE1059B002B26DC209B022B33
S1134B2023DD059B0693069B73B92946052250464F
S1134B3000F0D1F905462946079800F092FB0028B9
S1134B4009DC01E000252E46219B089C6FEA030B3B
S1134B5008E0BB462E46089B089A5C1C3123137060
S1134B600BF1010BB146002614E10C9B23B9059B04
S1134B700693089F079CCCE0059B0693002C05DD5B
S1134B8031465046224600F019FB0646B7B171681B
S1134B90504600F054F932690232044606F10C0121
S1134BA092000C30FEF7FAFD50462146012200F037
S1134BB005FB814603E000BF00002440B146089F86
S1134BC0079C29462046FFF7CDFA3146099000F1AB
S1134BD03008204600F045FB4A46059029465046D9
S1134BE000F05BFBC26803463AB9194620460793B6
S1134BF000F037FB079B024600E0012250461946AD
S1134C00079200F051F9079AA2B9209B93B9029B2D
S1134C1003F0010373B9B8F1390F3B46079440D050
S1134C20059B002BC8BF099B07F10104C8BF03F112
S1134C3031083DE0059B002B04DA002AC4460794A2
S1134C4008DC21E024D1209B13BB029B03F0010369
S1134C50F3B9F2E72146012250460597CDF80880C2
S1134C6000F0ACFA2946079000F0FBFA0028DDF8C2
S1134C7008C0059B03DC07D118F0010F04D0B8F17C
S1134C80390F0ED008F1010C7C1C87F800C081E0BC
S1134C90002A07F101020EDDB8F1390F3B460794F3
S1134CA003D1392201371A7057E0144608F101087C
S1134CB087F800806EE0089B02F8018CD31A17462F
S1134CC0069A93423AD021460A220023504600F025
S1134CD002F94E450446314650464FF00A024FF061
S1134CE0000304D100F0F7F80646814669E700F0B6
S1134CF0F2F8494606460A225046002300F0EBF833
S1134D0081465EE7214650460A22002300F0E3F87C
S1134D10044620462946FFF725FA00F1300807F833
S1134D20018B089B069AFB1A9342EBDB089B012A32
S1134D30ACBF9B180133B1461F4600262146012211
S1134D40504600F03BFA2946079000F08AFA002802
S1134D5003DC16D118F0010F13D03C4614F8013CC3
S1134D60392B04F1FF3209D1089B9A4204D10BF18B
S1134D70010B3123089A02E01446EFE70133137064
S1134D8008E03C4614F8013C302B04F1FF3201D119
S1134D901446F7E75046294600F086F8B9F1000FAB
S1134DA00CD02EB14E4503D05046314600F07CF86D
S1134DB05046494600F078F800E0BB465046079953
S1134DC000F072F80023229A23700BF101031360A0
S1134DD0249B1BB11C6001E00A480FE008980DE019
S1134DE0069B002B3FF7C5AE209B022B3FF79BAEE3
S1134DF0BFE6209B022B3FF796AEBFE617B0BDE897
S1134E00F08F00BF58610000004870479C000020EC
S1134E10024B0146186800F043BB00BF9800002015
S1134E2010B5C9B202449042034606D01C788C42A5
S1134E3000F10100F7D1184610BD002010BD70B577
S1134E40456A04460E463DB91020FFF7E1FF606253
S1134E50456085600560C560656AEB6843B1636A57
S1134E60DB6853F8260078B1026843F8262017E07F
S1134E7020460421212200F0C1FA636AE860DB685D
S1134E80002BECD1002070BD012101FA06F56A1D4A
S1134E902046920000F0B2FA0028F3D04660856004
S1134EA000230361C36070BD70B5446A06460D46B5
S1134EB03CB91020FFF7ACFF70624460846004606A
S1134EC0C4603DB1736A6A68DB6853F822102960D4
S1134ED043F8225070BD2DE9F0410F69984606460B
S1134EE00C4601F1140E0023DEF8000085B2010C1B
S1134EF002FB0585514301EB15410133ADB24FEA85
S1134F001148BB4205EB01414EF8041BECDBB8F140
S1134F10000F1BD0A3689F4212DB61683046013149
S1134F20FFF78DFF2269023204F10C01054692005D
S1134F300C30FEF733FC21463046FFF7B5FF2C4614
S1134F4004EB87030137C3F8148027612046BDE8CA
S1134F50F081030C1B0413B90004102300E00023A8
S1134F6010F07F4F04BF0002083310F0704F04BFED
S1134F700001043310F0404F04BF800002330028C6
S1134F8003DB420003D5581C7047184670472020A5
S1134F907047036813F007020BD0D90722D49A078D
S1134FA04BBF5B089B08036003604CBF01200220D9
S1134FB0704799B209B91B0C102213F0FF0F04BFFC
S1134FC01B0A0832190704BF1B090432990704BFDE
S1134FD09B080232D90702D45B0805D00132036072
S1134FE010467047002070472020704710B50C46CB
S1134FF00121FFF724FF01224461026110BD2DE964
S1135000F74F14460A6923699A42B8BF0B4688468B
S1135010BCBFA0461C46D8F81070D4F81090D8F83D
S11350200830D8F8041007EB09069E42C8BF0131C6
S1135030FFF705FF00F1140505EB860C2B466345CD
S113504003D2002243F8042BF9E704F1140208F117
S1135050140102EB890301EB87070093009B019283
S11350609A4257D2B2F800B0BBF1000F23D0894660
S1135070AE464FF0000859F8044BBEF800A0A3B2A6
S11350800BFB03A34FEA144ADEF8004043444FEA03
S113509014480BFB0A8404EB1344F2469BB243EA24
S11350A004434F454FEA14484AF8043B01D9D64615
S11350B0E1E7CEF80480019BB3F802A00432BAF110
S11350C0000F21D02B682C4689464FF00008B9F810
S11350D000E0B4F802B00AFB0EBEF044A3469BB253
S11350E043EA08434BF8043B59F8043BB4F804E0A2
S11350F01B0C0AFB03E303EB1843B9454FEA1348BF
S113510001D25C46E3E763600435A7E75CF8043D3D
S113511013B9013E002EF9DC066103B0BDE8F08F3F
S113512012F003032DE9F04106460F46154607D059
S1135130013B214A52F823200023FFF7CCFE074607
S1135140AD1035D0746A3CB91020FFF761FE70626F
S1135150446084600460C460D6F82480D8F80840B1
S11351607CB9304640F27121FFF740FF0023C8F8B4
S113517008000446036004E06D1019D0206870B183
S11351800446EB07F8D5394622463046FFF737FF89
S1135190394680463046FFF787FE4746ECE73046FF
S11351A021462246FFF72BFF002320600360E7E738
S11351B03846BDE8F08100BF806200002DE9F04769
S11351C00C464FEA621A236949680AEB0309A3688B
S11351D00746164609F101059D4202DD01315B00D7
S11351E0FAE73846FFF72BFE0023804600F114014E
S11351F0534504DA002241F823200133F8E72AEA70
S1135200EA73206901EB830316F01F0204F1140111
S113521001EB800E14D0C2F1200C00200E689640E1
S113522030439A4643F8040B51F8040B714520FAB5
S11352300CF0F3D3CAF8040048B109F1020506E002
S1135240043B51F8042B43F8042F7145F9D3013D75
S11352503846C8F810502146FFF726FE4046BDE800
S1135260F08703690A699B1A10B511D192001430B2
S1135270143183180A4453F8044D52F8041D8C4227
S113528002D007D3012010BD8342F4D8002010BD02
S1135290184610BD4FF0FF3010BD2DE9F843074606
S11352A00C46084611461546FFF7DBFF061E08D1DB
S11352B038463146FFF7C3FD012303614661BDE86B
S11352C0F883BCBF23462C4638466168BABF1D46E6
S11352D001260026FFF7B3FD2B69C660266905F198
S11352E01409143404EB860709EB830800F1140550
S11352F04FF0000C54F8043B59F8042B1CFA83F1CA
S11353001FFA82FE120CCEEB0101C2EB134303EB36
S1135310214389B24FEA234CC84541EA0343A646D8
S113532045F8043BE6D8BE450ED25EF8042B1CFAC1
S113533082F4120C02EB2442A4B24FEA224C44EA57
S1135340024245F8042BEEE755F8043D0BB9013E43
S1135350FAE70661BDE8F8832DE9F34101211D4612
S1135360089F099E1446FFF76AFDC5F31303C5F3AE
S11353700A5580460DB143F480130193ECB102A8A1
S113538040F8084DFFF705FE009B50B1019AC0F1AB
S1135390200102FA01F10B43C240C8F81430019213
S11353A001E0C8F81430019BC8F81830002B14BF72
S11353B002240124C8F8104009E001A8FFF7E9FD20
S11353C00124019BC8F81430C8F81040203035B1CE
S11353D0A5F2334505443D60C0F1350009E008EB12
S11353E08403A0F2324038601869FFF7B2FDC0EBC5
S11353F044103060404602B0BDE8F08138B502FB8D
S113540001F4214600F04CF8054618B1002122466B
S1135410FEF7CFF9284638BD30B500293DD051F804
S1135420042C0B1F1D49002AB8BF9B180A680C46A0
S113543012B95A600B6030BD93420DD219685818E6
S1135440904201BF5A5852181A6042685A60236049
S113545030BD994203D80A4651680029F9D114682D
S113546015199D420AD11B682344D0188842136041
S113547013D10868034413604B680DE002D90C2370
S1135480036030BD1C681819884204BF0868496865
S1135490596004BF00191860536030BD5C0A0020D5
S11354A070B5CC1C24F0030408340C2C38BF0C2435
S11354B0002C064603DA0C233360002070BD8C42B6
S11354C0F9D3204A136810461946A1B10A68121B81
S11354D00ED40B2A03D90A608B188C501FE08B4220
S11354E00DBF5A684A685A60026018BF0B4616E03E
S11354F00B464968E9E7144D2B681BB9304600F0A8
S113550071F928603046214600F06CF9421C0346CC
S1135510D1D0C51C25F0030585420AD11C6003F1D6
S11355200B001A1D20F00700821A0AD0514299502C
S113553070BD3046E91A00F055F90130BBD02B4656
S1135540ECE770BD5C0A0020580A00202DE9F04702
S11355508E68B34282460C469046994640D38A8967
S113556012F4906F3AD0256809696F1A65690223AD
S113557005EB450595FBF3F57B1C4B449D4238BF79
S11355801D4653050FD52946FFF78AFF064698B1F5
S113559021693A46FEF702F9A38923F4906343F0A4
S11355A08003A38113E02A4600F047F9064670B948
S11355B050462169FFF730FF0C23CAF80030A38955
S11355C043F04003A3814FF0FF30BDE8F08726612C
S11355D065613E44ED1B2660A5604E46B14500D290
S11355E04E4632462068414600F00CF9A3689B1BE6
S11355F0A36023681E4426600020BDE8F0870000F5
S11356002DE9F0439DB0064603938B891C060D4695
S113561090460CD50B6953B94021FFF741FF286030
S1135620286110B90C233360CCE040236B61002364
S1135630099320238DF8293030238DF82A304346EE
S11356401C4613F8012B1AB9B4EB08090FD002E079
S1135650252AF5D1F8E73046294642464B46FFF75E
S113566075FF013000F0A980099B4B44099323780E
S1135670002B00F0A28000234FF0FF320493079325
S1135680059206938DF853301A9304F101084446A9
S1135690DFF84891217848460522FFF7C1FB08F15D
S11356A00108049B30B1C9EB00000122824013437E
S11356B00493ECE7D80644BF20228DF85320190741
S11356C044BF2B228DF8532022782A2A02D007992E
S11356D023460EE0039A111D12680391002ABBBFF2
S11356E0524243F0020307920792B8BF0493013475
S11356F00AE01C4601332278303A092A03D80A20EA
S113570000FB0121F5E7079123782E2B1AD163784A
S11357102A2B0AD1039B1A1D1B680392002BB8BFC6
S11357204FF0FF33023405930CE0611C00220C4659
S113573001312378303B092B03D80A2000FB0232C5
S1135740F5E70592DFF89880217840460322FFF7B9
S113575067FB38B1049AC8EB00004023834013432D
S11357600493013421781A488DF82810062204F194
S11357700108FFF755FB88B1164B33B9039B073378
S113578023F007030833039313E003AB009330467D
S113579004A92A46104BFEF7A5F807E003AB0093D3
S11357A0304604A92A460C4BFEF758FB421C074618
S11357B003D0099B3B44099341E7AB895B0601D4C1
S11357C0099801E04FF0FF301DB0BDE8F08300BF41
S11357D096620000E53800004D5500008C62000020
S11357E09262000038B5064C002305460846236043
S11357F000F054F8431C02D1236803B12B6038BD78
S1135800780A0020814210B501EB020301D3421E45
S11358100BE09842FBD28118D21AD34204D013F879
S1135820014D01F8014DF8E710BD994204D011F87B
S1135830014B02F8014FF8E710BDF8B507461546CD
S11358400E4621B91146BDE8F840FFF729BE1AB942
S1135850FFF7E2FD2846F8BD00F015F8A8420ED285
S113586038462946FFF71CFE044650B131462A4605
S1135870FDF794FF38463146FFF7CEFD01E0304690
S1135880F8BD2046F8BD51F8040C0028BEBF091825
S113589051F8043CC018043870470000044A054914
S11358A01368002B08BF0B46184410601846704755
S11358B0600A0020800A0020FEE700BF4FF0FF3C92
S11358C006E000BF4FF0010C02E000BF4FF0010CF6
S11358D04DF804CD4FEA410C7FEA6C5C4FEA430C6F
S11358E018BF7FEA6C5C1BD001B050EA410C0CBFBE
S11358F052EA430C91EA030F02BF90EA020F002020
S1135900704710F1000F91EA030F58BF994208BF86
S113591090422CBFD8176FEAE37040F00100704743
S11359204FEA410C7FEA6C5C02D150EA013C07D19A
S11359304FEA430C7FEA6C5CD6D152EA033CD3D0E5
S11359405DF8040B704700BF8446104662468C46DF
S11359501946634600E000BF01B5FFF7B7FF002812
S113596048BF10F1000F01BD4DF808EDFFF7F4FF3B
S11359700CBF012000205DF808FB00BF4DF808EDC6
S1135980FFF7EAFF34BF012000205DF808FB00BFE9
S11359904DF808EDFFF7E0FF94BF012000205DF80B
S11359A008FB00BF4DF808EDFFF7CEFF94BF0120C0
S11359B000205DF808FB00BF4DF808EDFFF7C4FFB9
S11359C034BF012000205DF808FB00BF4FEA41020C
S11359D012F5001215D211D56FF47873B3EB62523D
S11359E012D94FEAC12343F0004343EA505311F064
S11359F0004F23FA02F018BF404270474FF00000F6
S1135A00704750EA013005D111F0004008BF6FF033
S1135A10004070474FF00000704700BFF8B500BF6A
S1135A20F8BC08BC9E467047F8B500BFF8BC08BC7B
S1135A309E4670475368617270204C533031334234
S1135A4037444830332023310000000005000000B3
S1135A500000000040420F000501000000000000AB
S1135A60000000000100000005000000000000002C
S1135A70805A0000200301640608020001000000AF
S1135A8000040A0A040306060802000000000000DD
S1135A900E040E1F081F0C1F0E0E00001000010E36
S1135AA00E0E0F0E071F1F0E110E1C110111110EE9
S1135AB00F0E0F1E1F11111111111F0E000E0400E5
S1135AC00200010010000C0001040801060000009F
S1135AD000000000020000000000000C04060000AA
S1135AE00000000000040A0A1E130904040404044C
S1135AF000000000110611080C0102101111060625
S1135B0008000211101111110901011111040809F1
S1135B10011B1111111111010411111111111002A4
S1135B2000080A00040001001000121E0100000118
S1135B300400000000000000020000000000000259
S1135B40040802000000000000040A1F0108050206
S1135B500208150400000010190410040A0F0108BB
S1135B6011110606041F0410101111011101010185
S1135B70110408050115131111111101041111115A
S1135B800A11080201081100080E0D0E160E02116A
S1135B900D060C09040B0D0E0F160D0E0711111135
S1135BA011111F0204081500000000000004000A7F
S1135BB00E04020002080E1F001F00081504080846
S1135BC009100F040E1E00000200080816110F0130
S1135BD0110F0F1D1F040803011515110F110F0ECE
S1135BE004111115040A0402020800000010130134
S1135BF019110711130408050415131111191301C0
S1135C00021111110A11080104100800000000001B
S1135C100000001F1002150002081504060000040D
S1135C20130404101F10110211100606041F0404AB
S1135C30151F110111010111110408050111191198
S1135C4001150510041111150A04020204080000CC
S1135C50001E1101111F021E110408030415111165
S1135C600F1E010E02111115041E04020408000087
S1135C70000000000000000A0F19090004040404D5
S1135C80040006021104021108111102110806048D
S1135C90080002001511111109010111110409096B
S1135CA0011111110109091004110A15110401024D
S1135CB00808000000111111110102101104090556
S1135CC0041111110110011012190A150A1002020F
S1135CD004080000000000000004000A0418160074
S1135CE008020000020006010E0E1F0E080E0E022E
